{
  "_format": "hh-sol-artifact-1",
  "contractName": "CryptoFundRacing",
  "sourceName": "contracts/CryptoFundRacing.sol",
  "abi": [
    {
      "inputs": [],
      "stateMutability": "nonpayable",
      "type": "constructor"
    },
    {
      "anonymous": false,
      "inputs": [
        {
          "indexed": true,
          "internalType": "address",
          "name": "poolAddress",
          "type": "address"
        },
        {
          "indexed": true,
          "internalType": "address",
          "name": "owner",
          "type": "address"
        },
        {
          "indexed": false,
          "internalType": "uint256",
          "name": "goal",
          "type": "uint256"
        },
        {
          "indexed": false,
          "internalType": "uint256",
          "name": "deadline",
          "type": "uint256"
        },
        {
          "indexed": false,
          "internalType": "string",
          "name": "socialLink",
          "type": "string"
        },
        {
          "indexed": false,
          "internalType": "address",
          "name": "_admin",
          "type": "address"
        },
        {
          "indexed": false,
          "internalType": "string",
          "name": "purpose",
          "type": "string"
        },
        {
          "indexed": false,
          "internalType": "string",
          "name": "imageUrl",
          "type": "string"
        }
      ],
      "name": "PoolCreated",
      "type": "event"
    },
    {
      "inputs": [],
      "name": "admin",
      "outputs": [
        {
          "internalType": "address",
          "name": "",
          "type": "address"
        }
      ],
      "stateMutability": "view",
      "type": "function"
    },
    {
      "inputs": [
        {
          "internalType": "uint256",
          "name": "goal",
          "type": "uint256"
        },
        {
          "internalType": "uint256",
          "name": "durationInHours",
          "type": "uint256"
        },
        {
          "internalType": "string",
          "name": "socialLink",
          "type": "string"
        },
        {
          "internalType": "string",
          "name": "purpose",
          "type": "string"
        },
        {
          "internalType": "string",
          "name": "imageUrl",
          "type": "string"
        }
      ],
      "name": "createPool",
      "outputs": [],
      "stateMutability": "nonpayable",
      "type": "function"
    },
    {
      "inputs": [],
      "name": "getAllPools",
      "outputs": [
        {
          "internalType": "contract Pool[]",
          "name": "",
          "type": "address[]"
        }
      ],
      "stateMutability": "view",
      "type": "function"
    },
    {
      "inputs": [
        {
          "internalType": "address",
          "name": "owner",
          "type": "address"
        }
      ],
      "name": "getPoolsByOwner",
      "outputs": [
        {
          "internalType": "contract Pool[]",
          "name": "",
          "type": "address[]"
        }
      ],
      "stateMutability": "view",
      "type": "function"
    },
    {
      "inputs": [
        {
          "internalType": "uint256",
          "name": "",
          "type": "uint256"
        }
      ],
      "name": "pools",
      "outputs": [
        {
          "internalType": "contract Pool",
          "name": "",
          "type": "address"
        }
      ],
      "stateMutability": "view",
      "type": "function"
    },
    {
      "inputs": [
        {
          "internalType": "address",
          "name": "",
          "type": "address"
        },
        {
          "internalType": "uint256",
          "name": "",
          "type": "uint256"
        }
      ],
      "name": "poolsByOwner",
      "outputs": [
        {
          "internalType": "contract Pool",
          "name": "",
          "type": "address"
        }
      ],
      "stateMutability": "view",
      "type": "function"
    },
    {
      "inputs": [
        {
          "internalType": "address",
          "name": "_admin",
          "type": "address"
        }
      ],
      "name": "setAdmin",
      "outputs": [],
      "stateMutability": "nonpayable",
      "type": "function"
    }
  ],
  "bytecode": "0x6080604052348015600f57600080fd5b5033600260006101000a81548173ffffffffffffffffffffffffffffffffffffffff021916908373ffffffffffffffffffffffffffffffffffffffff160217905550612df5806100606000396000f3fe608060405234801561001057600080fd5b506004361061007d5760003560e01c8063738b31df1161005b578063738b31df146100ea578063ac4afa381461011a578063d88ff1f41461014a578063f851a440146101685761007d565b80631c7a1e45146100825780636a6081361461009e578063704b6c02146100ce575b600080fd5b61009c600480360381019061009791906108a5565b610186565b005b6100b860048036038101906100b391906109d2565b610426565b6040516100c59190610b0d565b60405180910390f35b6100e860048036038101906100e391906109d2565b6104f3565b005b61010460048036038101906100ff9190610b2f565b6105c7565b6040516101119190610b7e565b60405180910390f35b610134600480360381019061012f9190610b99565b610615565b6040516101419190610b7e565b60405180910390f35b610152610654565b60405161015f9190610b0d565b60405180910390f35b6101706106e2565b60405161017d9190610bd5565b60405180910390f35b600085116101c9576040517f08c379a00000000000000000000000000000000000000000000000000000000081526004016101c090610c4d565b60405180910390fd5b6000841161020c576040517f08c379a000000000000000000000000000000000000000000000000000000000815260040161020390610cb9565b60405180910390fd5b600033868686600260009054906101000a900473ffffffffffffffffffffffffffffffffffffffff16878760405161024390610708565b6102539796959493929190610d56565b604051809103906000f08015801561026f573d6000803e3d6000fd5b5090506000819080600181540180825580915050600190039060005260206000200160009091909190916101000a81548173ffffffffffffffffffffffffffffffffffffffff021916908373ffffffffffffffffffffffffffffffffffffffff160217905550600160003373ffffffffffffffffffffffffffffffffffffffff1673ffffffffffffffffffffffffffffffffffffffff168152602001908152602001600020819080600181540180825580915050600190039060005260206000200160009091909190916101000a81548173ffffffffffffffffffffffffffffffffffffffff021916908373ffffffffffffffffffffffffffffffffffffffff1602179055503373ffffffffffffffffffffffffffffffffffffffff168173ffffffffffffffffffffffffffffffffffffffff167ff1befe7b097414157a682262c86f0d66f6ac18ccff2d23485ae51c9b2ec8868288610e10896103d39190610e09565b426103de9190610e4b565b88600260009054906101000a900473ffffffffffffffffffffffffffffffffffffffff16898960405161041696959493929190610e7f565b60405180910390a3505050505050565b6060600160008373ffffffffffffffffffffffffffffffffffffffff1673ffffffffffffffffffffffffffffffffffffffff1681526020019081526020016000208054806020026020016040519081016040528092919081815260200182805480156104e757602002820191906000526020600020905b8160009054906101000a900473ffffffffffffffffffffffffffffffffffffffff1673ffffffffffffffffffffffffffffffffffffffff168152602001906001019080831161049d575b50505050509050919050565b600260009054906101000a900473ffffffffffffffffffffffffffffffffffffffff1673ffffffffffffffffffffffffffffffffffffffff163373ffffffffffffffffffffffffffffffffffffffff1614610583576040517f08c379a000000000000000000000000000000000000000000000000000000000815260040161057a90610f41565b60405180910390fd5b80600260006101000a81548173ffffffffffffffffffffffffffffffffffffffff021916908373ffffffffffffffffffffffffffffffffffffffff16021790555050565b600160205281600052604060002081815481106105e357600080fd5b906000526020600020016000915091509054906101000a900473ffffffffffffffffffffffffffffffffffffffff1681565b6000818154811061062557600080fd5b906000526020600020016000915054906101000a900473ffffffffffffffffffffffffffffffffffffffff1681565b606060008054806020026020016040519081016040528092919081815260200182805480156106d857602002820191906000526020600020905b8160009054906101000a900473ffffffffffffffffffffffffffffffffffffffff1673ffffffffffffffffffffffffffffffffffffffff168152602001906001019080831161068e575b5050505050905090565b600260009054906101000a900473ffffffffffffffffffffffffffffffffffffffff1681565b611e5e80610f6283390190565b6000604051905090565b600080fd5b600080fd5b6000819050919050565b61073c81610729565b811461074757600080fd5b50565b60008135905061075981610733565b92915050565b600080fd5b600080fd5b6000601f19601f8301169050919050565b7f4e487b7100000000000000000000000000000000000000000000000000000000600052604160045260246000fd5b6107b282610769565b810181811067ffffffffffffffff821117156107d1576107d061077a565b5b80604052505050565b60006107e4610715565b90506107f082826107a9565b919050565b600067ffffffffffffffff8211156108105761080f61077a565b5b61081982610769565b9050602081019050919050565b82818337600083830152505050565b6000610848610843846107f5565b6107da565b90508281526020810184848401111561086457610863610764565b5b61086f848285610826565b509392505050565b600082601f83011261088c5761088b61075f565b5b813561089c848260208601610835565b91505092915050565b600080600080600060a086880312156108c1576108c061071f565b5b60006108cf8882890161074a565b95505060206108e08882890161074a565b945050604086013567ffffffffffffffff81111561090157610900610724565b5b61090d88828901610877565b935050606086013567ffffffffffffffff81111561092e5761092d610724565b5b61093a88828901610877565b925050608086013567ffffffffffffffff81111561095b5761095a610724565b5b61096788828901610877565b9150509295509295909350565b600073ffffffffffffffffffffffffffffffffffffffff82169050919050565b600061099f82610974565b9050919050565b6109af81610994565b81146109ba57600080fd5b50565b6000813590506109cc816109a6565b92915050565b6000602082840312156109e8576109e761071f565b5b60006109f6848285016109bd565b91505092915050565b600081519050919050565b600082825260208201905092915050565b6000819050602082019050919050565b6000819050919050565b6000610a50610a4b610a4684610974565b610a2b565b610974565b9050919050565b6000610a6282610a35565b9050919050565b6000610a7482610a57565b9050919050565b610a8481610a69565b82525050565b6000610a968383610a7b565b60208301905092915050565b6000602082019050919050565b6000610aba826109ff565b610ac48185610a0a565b9350610acf83610a1b565b8060005b83811015610b00578151610ae78882610a8a565b9750610af283610aa2565b925050600181019050610ad3565b5085935050505092915050565b60006020820190508181036000830152610b278184610aaf565b905092915050565b60008060408385031215610b4657610b4561071f565b5b6000610b54858286016109bd565b9250506020610b658582860161074a565b9150509250929050565b610b7881610a69565b82525050565b6000602082019050610b936000830184610b6f565b92915050565b600060208284031215610baf57610bae61071f565b5b6000610bbd8482850161074a565b91505092915050565b610bcf81610994565b82525050565b6000602082019050610bea6000830184610bc6565b92915050565b600082825260208201905092915050565b7f476f616c206d757374206265203e203000000000000000000000000000000000600082015250565b6000610c37601083610bf0565b9150610c4282610c01565b602082019050919050565b60006020820190508181036000830152610c6681610c2a565b9050919050565b7f4475726174696f6e206d757374206265203e2030000000000000000000000000600082015250565b6000610ca3601483610bf0565b9150610cae82610c6d565b602082019050919050565b60006020820190508181036000830152610cd281610c96565b9050919050565b610ce281610729565b82525050565b600081519050919050565b60005b83811015610d11578082015181840152602081019050610cf6565b60008484015250505050565b6000610d2882610ce8565b610d328185610bf0565b9350610d42818560208601610cf3565b610d4b81610769565b840191505092915050565b600060e082019050610d6b600083018a610bc6565b610d786020830189610cd9565b610d856040830188610cd9565b8181036060830152610d978187610d1d565b9050610da66080830186610bc6565b81810360a0830152610db88185610d1d565b905081810360c0830152610dcc8184610d1d565b905098975050505050505050565b7f4e487b7100000000000000000000000000000000000000000000000000000000600052601160045260246000fd5b6000610e1482610729565b9150610e1f83610729565b9250828202610e2d81610729565b91508282048414831517610e4457610e43610dda565b5b5092915050565b6000610e5682610729565b9150610e6183610729565b9250828201905080821115610e7957610e78610dda565b5b92915050565b600060c082019050610e946000830189610cd9565b610ea16020830188610cd9565b8181036040830152610eb38187610d1d565b9050610ec26060830186610bc6565b8181036080830152610ed48185610d1d565b905081810360a0830152610ee88184610d1d565b9050979650505050505050565b7f4e6f742061646d696e0000000000000000000000000000000000000000000000600082015250565b6000610f2b600983610bf0565b9150610f3682610ef5565b602082019050919050565b60006020820190508181036000830152610f5a81610f1e565b905091905056fe60806040526000600860006101000a81548160ff02191690831515021790555034801561002b57600080fd5b50604051611e5e380380611e5e833981810160405281019061004d9190610339565b866000806101000a81548173ffffffffffffffffffffffffffffffffffffffff021916908373ffffffffffffffffffffffffffffffffffffffff16021790555085600181905550610e10856100a2919061045e565b426100ad91906104a0565b60028190555083600590816100c291906106eb565b5082600460006101000a81548173ffffffffffffffffffffffffffffffffffffffff021916908373ffffffffffffffffffffffffffffffffffffffff160217905550816006908161011391906106eb565b50806007908161012391906106eb565b50505050505050506107bd565b6000604051905090565b600080fd5b600080fd5b600073ffffffffffffffffffffffffffffffffffffffff82169050919050565b600061016f82610144565b9050919050565b61017f81610164565b811461018a57600080fd5b50565b60008151905061019c81610176565b92915050565b6000819050919050565b6101b5816101a2565b81146101c057600080fd5b50565b6000815190506101d2816101ac565b92915050565b600080fd5b600080fd5b6000601f19601f8301169050919050565b7f4e487b7100000000000000000000000000000000000000000000000000000000600052604160045260246000fd5b61022b826101e2565b810181811067ffffffffffffffff8211171561024a576102496101f3565b5b80604052505050565b600061025d610130565b90506102698282610222565b919050565b600067ffffffffffffffff821115610289576102886101f3565b5b610292826101e2565b9050602081019050919050565b60005b838110156102bd5780820151818401526020810190506102a2565b60008484015250505050565b60006102dc6102d78461026e565b610253565b9050828152602081018484840111156102f8576102f76101dd565b5b61030384828561029f565b509392505050565b600082601f8301126103205761031f6101d8565b5b81516103308482602086016102c9565b91505092915050565b600080600080600080600060e0888a0312156103585761035761013a565b5b60006103668a828b0161018d565b97505060206103778a828b016101c3565b96505060406103888a828b016101c3565b955050606088015167ffffffffffffffff8111156103a9576103a861013f565b5b6103b58a828b0161030b565b94505060806103c68a828b0161018d565b93505060a088015167ffffffffffffffff8111156103e7576103e661013f565b5b6103f38a828b0161030b565b92505060c088015167ffffffffffffffff8111156104145761041361013f565b5b6104208a828b0161030b565b91505092959891949750929550565b7f4e487b7100000000000000000000000000000000000000000000000000000000600052601160045260246000fd5b6000610469826101a2565b9150610474836101a2565b9250828202610482816101a2565b915082820484148315176104995761049861042f565b5b5092915050565b60006104ab826101a2565b91506104b6836101a2565b92508282019050808211156104ce576104cd61042f565b5b92915050565b600081519050919050565b7f4e487b7100000000000000000000000000000000000000000000000000000000600052602260045260246000fd5b6000600282049050600182168061052657607f821691505b602082108103610539576105386104df565b5b50919050565b60008190508160005260206000209050919050565b60006020601f8301049050919050565b600082821b905092915050565b6000600883026105a17fffffffffffffffffffffffffffffffffffffffffffffffffffffffffffffffff82610564565b6105ab8683610564565b95508019841693508086168417925050509392505050565b6000819050919050565b60006105e86105e36105de846101a2565b6105c3565b6101a2565b9050919050565b6000819050919050565b610602836105cd565b61061661060e826105ef565b848454610571565b825550505050565b600090565b61062b61061e565b6106368184846105f9565b505050565b5b8181101561065a5761064f600082610623565b60018101905061063c565b5050565b601f82111561069f576106708161053f565b61067984610554565b81016020851015610688578190505b61069c61069485610554565b83018261063b565b50505b505050565b600082821c905092915050565b60006106c2600019846008026106a4565b1980831691505092915050565b60006106db83836106b1565b9150826002028217905092915050565b6106f4826104d4565b67ffffffffffffffff81111561070d5761070c6101f3565b5b610717825461050e565b61072282828561065e565b600060209050601f8311600181146107555760008415610743578287015190505b61074d85826106cf565b8655506107b5565b601f1984166107638661053f565b60005b8281101561078b57848901518255600182019150602085019450602081019050610766565b868310156107a857848901516107a4601f8916826106b1565b8355505b6001600288020188555050505b505050505050565b611692806107cc6000396000f3fe6080604052600436106100ec5760003560e01c806360246c881161008a5780638da5cb5b116100595780638da5cb5b14610325578063d7bb99ba14610350578063f18d20be1461035a578063f851a4401461037157610161565b806360246c881461027b5780636c15c919146102a657806372b0d90c146102d15780637b352962146102fa57610161565b80633ccfd60b116100c65780633ccfd60b146101e557806340193883146101fc57806342e94c9014610227578063590e1ae31461026457610161565b8063023f4147146101665780630fc9fc291461019157806329dcb0cf146101ba57610161565b366101615734600360008282546101039190610f21565b9250508190555034600960003373ffffffffffffffffffffffffffffffffffffffff1673ffffffffffffffffffffffffffffffffffffffff16815260200190815260200160002060008282546101599190610f21565b925050819055005b600080fd5b34801561017257600080fd5b5061017b61039c565b6040516101889190610f64565b60405180910390f35b34801561019d57600080fd5b506101b860048036038101906101b39190610fe2565b6103a2565b005b3480156101c657600080fd5b506101cf61047c565b6040516101dc9190610f64565b60405180910390f35b3480156101f157600080fd5b506101fa610482565b005b34801561020857600080fd5b5061021161067a565b60405161021e9190610f64565b60405180910390f35b34801561023357600080fd5b5061024e60048036038101906102499190610fe2565b610680565b60405161025b9190610f64565b60405180910390f35b34801561027057600080fd5b50610279610698565b005b34801561028757600080fd5b50610290610839565b60405161029d9190611167565b60405180910390f35b3480156102b257600080fd5b506102bb610a53565b6040516102c891906111a4565b60405180910390f35b3480156102dd57600080fd5b506102f860048036038101906102f39190610fe2565b610a6a565b005b34801561030657600080fd5b5061030f610c45565b60405161031c91906111a4565b60405180910390f35b34801561033157600080fd5b5061033a610c58565b60405161034791906111ce565b60405180910390f35b610358610c7c565b005b34801561036657600080fd5b5061036f610d74565b005b34801561037d57600080fd5b50610386610e6f565b60405161039391906111ce565b60405180910390f35b60035481565b600460009054906101000a900473ffffffffffffffffffffffffffffffffffffffff1673ffffffffffffffffffffffffffffffffffffffff163373ffffffffffffffffffffffffffffffffffffffff1614610432576040517f08c379a000000000000000000000000000000000000000000000000000000000815260040161042990611246565b60405180910390fd5b8073ffffffffffffffffffffffffffffffffffffffff166108fc479081150290604051600060405180830381858888f19350505050158015610478573d6000803e3d6000fd5b5050565b60025481565b60008054906101000a900473ffffffffffffffffffffffffffffffffffffffff1673ffffffffffffffffffffffffffffffffffffffff163373ffffffffffffffffffffffffffffffffffffffff1614610510576040517f08c379a0000000000000000000000000000000000000000000000000000000008152600401610507906112b2565b60405180910390fd5b6001546003541015610557576040517f08c379a000000000000000000000000000000000000000000000000000000000815260040161054e9061131e565b60405180910390fd5b600047905060008054906101000a900473ffffffffffffffffffffffffffffffffffffffff1673ffffffffffffffffffffffffffffffffffffffff166108fc60146064846105a5919061136d565b6105af919061139e565b9081150290604051600060405180830381858888f193505050501580156105da573d6000803e3d6000fd5b50600460009054906101000a900473ffffffffffffffffffffffffffffffffffffffff1673ffffffffffffffffffffffffffffffffffffffff166108fc6050606484610626919061136d565b610630919061139e565b9081150290604051600060405180830381858888f1935050505015801561065b573d6000803e3d6000fd5b506001600860006101000a81548160ff02191690831515021790555050565b60015481565b60096020528060005260406000206000915090505481565b6002544210156106dd576040517f08c379a00000000000000000000000000000000000000000000000000000000081526004016106d49061142c565b60405180910390fd5b60015460035410610723576040517f08c379a000000000000000000000000000000000000000000000000000000000815260040161071a90611498565b60405180910390fd5b6000600960003373ffffffffffffffffffffffffffffffffffffffff1673ffffffffffffffffffffffffffffffffffffffff168152602001908152602001600020549050600081116107aa576040517f08c379a00000000000000000000000000000000000000000000000000000000081526004016107a190611504565b60405180910390fd5b6000600960003373ffffffffffffffffffffffffffffffffffffffff1673ffffffffffffffffffffffffffffffffffffffff168152602001908152602001600020819055503373ffffffffffffffffffffffffffffffffffffffff166108fc829081150290604051600060405180830381858888f19350505050158015610835573d6000803e3d6000fd5b5050565b610841610e95565b6040518060e0016040528060008054906101000a900473ffffffffffffffffffffffffffffffffffffffff1673ffffffffffffffffffffffffffffffffffffffff168152602001600154815260200160025481526020016003548152602001600580546108ad90611553565b80601f01602080910402602001604051908101604052809291908181526020018280546108d990611553565b80156109265780601f106108fb57610100808354040283529160200191610926565b820191906000526020600020905b81548152906001019060200180831161090957829003601f168201915b505050505081526020016006805461093d90611553565b80601f016020809104026020016040519081016040528092919081815260200182805461096990611553565b80156109b65780601f1061098b576101008083540402835291602001916109b6565b820191906000526020600020905b81548152906001019060200180831161099957829003601f168201915b50505050508152602001600780546109cd90611553565b80601f01602080910402602001604051908101604052809291908181526020018280546109f990611553565b8015610a465780601f10610a1b57610100808354040283529160200191610a46565b820191906000526020600020905b815481529060010190602001808311610a2957829003601f168201915b5050505050815250905090565b6000600860009054906101000a900460ff16905090565b600460009054906101000a900473ffffffffffffffffffffffffffffffffffffffff1673ffffffffffffffffffffffffffffffffffffffff163373ffffffffffffffffffffffffffffffffffffffff1614610afa576040517f08c379a0000000000000000000000000000000000000000000000000000000008152600401610af1906112b2565b60405180910390fd5b6001546003541015610b41576040517f08c379a0000000000000000000000000000000000000000000000000000000008152600401610b389061131e565b60405180910390fd5b60004790508173ffffffffffffffffffffffffffffffffffffffff166108fc6014606484610b6f919061136d565b610b79919061139e565b9081150290604051600060405180830381858888f19350505050158015610ba4573d6000803e3d6000fd5b50600460009054906101000a900473ffffffffffffffffffffffffffffffffffffffff1673ffffffffffffffffffffffffffffffffffffffff166108fc6050606484610bf0919061136d565b610bfa919061139e565b9081150290604051600060405180830381858888f19350505050158015610c25573d6000803e3d6000fd5b506001600860006101000a81548160ff0219169083151502179055505050565b600860009054906101000a900460ff1681565b60008054906101000a900473ffffffffffffffffffffffffffffffffffffffff1681565b6002544210610cc0576040517f08c379a0000000000000000000000000000000000000000000000000000000008152600401610cb7906115d0565b60405180910390fd5b60003411610d03576040517f08c379a0000000000000000000000000000000000000000000000000000000008152600401610cfa9061163c565b60405180910390fd5b34600960003373ffffffffffffffffffffffffffffffffffffffff1673ffffffffffffffffffffffffffffffffffffffff1681526020019081526020016000206000828254610d529190610f21565b925050819055503460036000828254610d6b9190610f21565b92505081905550565b600460009054906101000a900473ffffffffffffffffffffffffffffffffffffffff1673ffffffffffffffffffffffffffffffffffffffff163373ffffffffffffffffffffffffffffffffffffffff1614610e04576040517f08c379a0000000000000000000000000000000000000000000000000000000008152600401610dfb90611246565b60405180910390fd5b600460009054906101000a900473ffffffffffffffffffffffffffffffffffffffff1673ffffffffffffffffffffffffffffffffffffffff166108fc479081150290604051600060405180830381858888f19350505050158015610e6c573d6000803e3d6000fd5b50565b600460009054906101000a900473ffffffffffffffffffffffffffffffffffffffff1681565b6040518060e00160405280600073ffffffffffffffffffffffffffffffffffffffff1681526020016000815260200160008152602001600081526020016060815260200160608152602001606081525090565b6000819050919050565b7f4e487b7100000000000000000000000000000000000000000000000000000000600052601160045260246000fd5b6000610f2c82610ee8565b9150610f3783610ee8565b9250828201905080821115610f4f57610f4e610ef2565b5b92915050565b610f5e81610ee8565b82525050565b6000602082019050610f796000830184610f55565b92915050565b600080fd5b600073ffffffffffffffffffffffffffffffffffffffff82169050919050565b6000610faf82610f84565b9050919050565b610fbf81610fa4565b8114610fca57600080fd5b50565b600081359050610fdc81610fb6565b92915050565b600060208284031215610ff857610ff7610f7f565b5b600061100684828501610fcd565b91505092915050565b61101881610fa4565b82525050565b61102781610ee8565b82525050565b600081519050919050565b600082825260208201905092915050565b60005b8381101561106757808201518184015260208101905061104c565b60008484015250505050565b6000601f19601f8301169050919050565b600061108f8261102d565b6110998185611038565b93506110a9818560208601611049565b6110b281611073565b840191505092915050565b600060e0830160008301516110d5600086018261100f565b5060208301516110e8602086018261101e565b5060408301516110fb604086018261101e565b50606083015161110e606086018261101e565b50608083015184820360808601526111268282611084565b91505060a083015184820360a08601526111408282611084565b91505060c083015184820360c086015261115a8282611084565b9150508091505092915050565b6000602082019050818103600083015261118181846110bd565b905092915050565b60008115159050919050565b61119e81611189565b82525050565b60006020820190506111b96000830184611195565b92915050565b6111c881610fa4565b82525050565b60006020820190506111e360008301846111bf565b92915050565b600082825260208201905092915050565b7f4e6f742061646d696e0000000000000000000000000000000000000000000000600082015250565b60006112306009836111e9565b915061123b826111fa565b602082019050919050565b6000602082019050818103600083015261125f81611223565b9050919050565b7f4e6f74206f776e65720000000000000000000000000000000000000000000000600082015250565b600061129c6009836111e9565b91506112a782611266565b602082019050919050565b600060208201905081810360008301526112cb8161128f565b9050919050565b7f476f616c206e6f74206d65740000000000000000000000000000000000000000600082015250565b6000611308600c836111e9565b9150611313826112d2565b602082019050919050565b60006020820190508181036000830152611337816112fb565b9050919050565b7f4e487b7100000000000000000000000000000000000000000000000000000000600052601260045260246000fd5b600061137882610ee8565b915061138383610ee8565b9250826113935761139261133e565b5b828204905092915050565b60006113a982610ee8565b91506113b483610ee8565b92508282026113c281610ee8565b915082820484148315176113d9576113d8610ef2565b5b5092915050565b7f446561646c696e65206e6f742072656163686564000000000000000000000000600082015250565b60006114166014836111e9565b9150611421826113e0565b602082019050919050565b6000602082019050818103600083015261144581611409565b9050919050565b7f476f616c20776173206d65740000000000000000000000000000000000000000600082015250565b6000611482600c836111e9565b915061148d8261144c565b602082019050919050565b600060208201905081810360008301526114b181611475565b9050919050565b7f4e6f20636f6e747269627574696f6e7300000000000000000000000000000000600082015250565b60006114ee6010836111e9565b91506114f9826114b8565b602082019050919050565b6000602082019050818103600083015261151d816114e1565b9050919050565b7f4e487b7100000000000000000000000000000000000000000000000000000000600052602260045260246000fd5b6000600282049050600182168061156b57607f821691505b60208210810361157e5761157d611524565b5b50919050565b7f446561646c696e65207061737365640000000000000000000000000000000000600082015250565b60006115ba600f836111e9565b91506115c582611584565b602082019050919050565b600060208201905081810360008301526115e9816115ad565b9050919050565b7f436f6e747269627574696f6e206d757374206265203e20300000000000000000600082015250565b60006116266018836111e9565b9150611631826115f0565b602082019050919050565b6000602082019050818103600083015261165581611619565b905091905056fea26469706673582212207ad1731f37d24070671bc83d72c264af5232b1c8a84f47b18caf4608c34361a564736f6c634300081c0033a26469706673582212203280d0b689c2e59d9a6bd6889390ee27a6c7a2b6551f1dfbaefa356289a9486f64736f6c634300081c0033",
  "linkReferences": {},
  "deployedLinkReferences": {}
}