{
  "_format": "hh-sol-artifact-1",
  "contractName": "CryptoFundRacing",
  "sourceName": "contracts/CryptoFundRacing.sol",
  "abi": [
    {
      "inputs": [],
      "stateMutability": "nonpayable",
      "type": "constructor"
    },
    {
      "anonymous": false,
      "inputs": [
        {
          "indexed": true,
          "internalType": "address",
          "name": "poolAddress",
          "type": "address"
        },
        {
          "indexed": true,
          "internalType": "address",
          "name": "owner",
          "type": "address"
        },
        {
          "indexed": false,
          "internalType": "uint256",
          "name": "goal",
          "type": "uint256"
        },
        {
          "indexed": false,
          "internalType": "uint256",
          "name": "deadline",
          "type": "uint256"
        },
        {
          "indexed": false,
          "internalType": "string",
          "name": "socialLink",
          "type": "string"
        },
        {
          "indexed": false,
          "internalType": "address",
          "name": "_admin",
          "type": "address"
        }
      ],
      "name": "PoolCreated",
      "type": "event"
    },
    {
      "inputs": [],
      "name": "admin",
      "outputs": [
        {
          "internalType": "address",
          "name": "",
          "type": "address"
        }
      ],
      "stateMutability": "view",
      "type": "function"
    },
    {
      "inputs": [
        {
          "internalType": "uint256",
          "name": "goal",
          "type": "uint256"
        },
        {
          "internalType": "uint256",
          "name": "durationInHours",
          "type": "uint256"
        },
        {
          "internalType": "string",
          "name": "socialLink",
          "type": "string"
        }
      ],
      "name": "createPool",
      "outputs": [],
      "stateMutability": "nonpayable",
      "type": "function"
    },
    {
      "inputs": [],
      "name": "getAllPools",
      "outputs": [
        {
          "internalType": "contract Pool[]",
          "name": "",
          "type": "address[]"
        }
      ],
      "stateMutability": "view",
      "type": "function"
    },
    {
      "inputs": [
        {
          "internalType": "address",
          "name": "owner",
          "type": "address"
        }
      ],
      "name": "getPoolsByOwner",
      "outputs": [
        {
          "internalType": "contract Pool[]",
          "name": "",
          "type": "address[]"
        }
      ],
      "stateMutability": "view",
      "type": "function"
    },
    {
      "inputs": [
        {
          "internalType": "uint256",
          "name": "",
          "type": "uint256"
        }
      ],
      "name": "pools",
      "outputs": [
        {
          "internalType": "contract Pool",
          "name": "",
          "type": "address"
        }
      ],
      "stateMutability": "view",
      "type": "function"
    },
    {
      "inputs": [
        {
          "internalType": "address",
          "name": "",
          "type": "address"
        },
        {
          "internalType": "uint256",
          "name": "",
          "type": "uint256"
        }
      ],
      "name": "poolsByOwner",
      "outputs": [
        {
          "internalType": "contract Pool",
          "name": "",
          "type": "address"
        }
      ],
      "stateMutability": "view",
      "type": "function"
    },
    {
      "inputs": [
        {
          "internalType": "address",
          "name": "_admin",
          "type": "address"
        }
      ],
      "name": "setAdmin",
      "outputs": [],
      "stateMutability": "nonpayable",
      "type": "function"
    }
  ],
  "bytecode": "0x6080604052348015600f57600080fd5b5033600260006101000a81548173ffffffffffffffffffffffffffffffffffffffff021916908373ffffffffffffffffffffffffffffffffffffffff160217905550612b07806100606000396000f3fe608060405234801561001057600080fd5b506004361061007d5760003560e01c8063893582241161005b57806389358224146100fe578063ac4afa381461011a578063d88ff1f41461014a578063f851a440146101685761007d565b80636a60813614610082578063704b6c02146100b2578063738b31df146100ce575b600080fd5b61009c6004803603810190610097919061077d565b610186565b6040516100a991906108b8565b60405180910390f35b6100cc60048036038101906100c7919061077d565b610253565b005b6100e860048036038101906100e39190610910565b610327565b6040516100f5919061095f565b60405180910390f35b61011860048036038101906101139190610ac0565b610375565b005b610134600480360381019061012f9190610b2f565b61060b565b604051610141919061095f565b60405180910390f35b61015261064a565b60405161015f91906108b8565b60405180910390f35b6101706106d8565b60405161017d9190610b6b565b60405180910390f35b6060600160008373ffffffffffffffffffffffffffffffffffffffff1673ffffffffffffffffffffffffffffffffffffffff16815260200190815260200160002080548060200260200160405190810160405280929190818152602001828054801561024757602002820191906000526020600020905b8160009054906101000a900473ffffffffffffffffffffffffffffffffffffffff1673ffffffffffffffffffffffffffffffffffffffff16815260200190600101908083116101fd575b50505050509050919050565b600260009054906101000a900473ffffffffffffffffffffffffffffffffffffffff1673ffffffffffffffffffffffffffffffffffffffff163373ffffffffffffffffffffffffffffffffffffffff16146102e3576040517f08c379a00000000000000000000000000000000000000000000000000000000081526004016102da90610be3565b60405180910390fd5b80600260006101000a81548173ffffffffffffffffffffffffffffffffffffffff021916908373ffffffffffffffffffffffffffffffffffffffff16021790555050565b6001602052816000526040600020818154811061034357600080fd5b906000526020600020016000915091509054906101000a900473ffffffffffffffffffffffffffffffffffffffff1681565b600083116103b8576040517f08c379a00000000000000000000000000000000000000000000000000000000081526004016103af90610c4f565b60405180910390fd5b600082116103fb576040517f08c379a00000000000000000000000000000000000000000000000000000000081526004016103f290610cbb565b60405180910390fd5b600033848484600260009054906101000a900473ffffffffffffffffffffffffffffffffffffffff16604051610430906106fe565b61043e959493929190610d58565b604051809103906000f08015801561045a573d6000803e3d6000fd5b5090506000819080600181540180825580915050600190039060005260206000200160009091909190916101000a81548173ffffffffffffffffffffffffffffffffffffffff021916908373ffffffffffffffffffffffffffffffffffffffff160217905550600160003373ffffffffffffffffffffffffffffffffffffffff1673ffffffffffffffffffffffffffffffffffffffff168152602001908152602001600020819080600181540180825580915050600190039060005260206000200160009091909190916101000a81548173ffffffffffffffffffffffffffffffffffffffff021916908373ffffffffffffffffffffffffffffffffffffffff1602179055503373ffffffffffffffffffffffffffffffffffffffff168173ffffffffffffffffffffffffffffffffffffffff167f035481d9697ecbb4be6c2acdb658fe520578439d68d65e1278bbf8c94904399c86610e10876105be9190610de1565b426105c99190610e23565b86600260009054906101000a900473ffffffffffffffffffffffffffffffffffffffff166040516105fd9493929190610e57565b60405180910390a350505050565b6000818154811061061b57600080fd5b906000526020600020016000915054906101000a900473ffffffffffffffffffffffffffffffffffffffff1681565b606060008054806020026020016040519081016040528092919081815260200182805480156106ce57602002820191906000526020600020905b8160009054906101000a900473ffffffffffffffffffffffffffffffffffffffff1673ffffffffffffffffffffffffffffffffffffffff1681526020019060010190808311610684575b5050505050905090565b600260009054906101000a900473ffffffffffffffffffffffffffffffffffffffff1681565b611c2e80610ea483390190565b6000604051905090565b600080fd5b600080fd5b600073ffffffffffffffffffffffffffffffffffffffff82169050919050565b600061074a8261071f565b9050919050565b61075a8161073f565b811461076557600080fd5b50565b60008135905061077781610751565b92915050565b60006020828403121561079357610792610715565b5b60006107a184828501610768565b91505092915050565b600081519050919050565b600082825260208201905092915050565b6000819050602082019050919050565b6000819050919050565b60006107fb6107f66107f18461071f565b6107d6565b61071f565b9050919050565b600061080d826107e0565b9050919050565b600061081f82610802565b9050919050565b61082f81610814565b82525050565b60006108418383610826565b60208301905092915050565b6000602082019050919050565b6000610865826107aa565b61086f81856107b5565b935061087a836107c6565b8060005b838110156108ab5781516108928882610835565b975061089d8361084d565b92505060018101905061087e565b5085935050505092915050565b600060208201905081810360008301526108d2818461085a565b905092915050565b6000819050919050565b6108ed816108da565b81146108f857600080fd5b50565b60008135905061090a816108e4565b92915050565b6000806040838503121561092757610926610715565b5b600061093585828601610768565b9250506020610946858286016108fb565b9150509250929050565b61095981610814565b82525050565b60006020820190506109746000830184610950565b92915050565b600080fd5b600080fd5b6000601f19601f8301169050919050565b7f4e487b7100000000000000000000000000000000000000000000000000000000600052604160045260246000fd5b6109cd82610984565b810181811067ffffffffffffffff821117156109ec576109eb610995565b5b80604052505050565b60006109ff61070b565b9050610a0b82826109c4565b919050565b600067ffffffffffffffff821115610a2b57610a2a610995565b5b610a3482610984565b9050602081019050919050565b82818337600083830152505050565b6000610a63610a5e84610a10565b6109f5565b905082815260208101848484011115610a7f57610a7e61097f565b5b610a8a848285610a41565b509392505050565b600082601f830112610aa757610aa661097a565b5b8135610ab7848260208601610a50565b91505092915050565b600080600060608486031215610ad957610ad8610715565b5b6000610ae7868287016108fb565b9350506020610af8868287016108fb565b925050604084013567ffffffffffffffff811115610b1957610b1861071a565b5b610b2586828701610a92565b9150509250925092565b600060208284031215610b4557610b44610715565b5b6000610b53848285016108fb565b91505092915050565b610b658161073f565b82525050565b6000602082019050610b806000830184610b5c565b92915050565b600082825260208201905092915050565b7f4e6f742061646d696e0000000000000000000000000000000000000000000000600082015250565b6000610bcd600983610b86565b9150610bd882610b97565b602082019050919050565b60006020820190508181036000830152610bfc81610bc0565b9050919050565b7f476f616c206d757374206265203e203000000000000000000000000000000000600082015250565b6000610c39601083610b86565b9150610c4482610c03565b602082019050919050565b60006020820190508181036000830152610c6881610c2c565b9050919050565b7f4475726174696f6e206d757374206265203e2030000000000000000000000000600082015250565b6000610ca5601483610b86565b9150610cb082610c6f565b602082019050919050565b60006020820190508181036000830152610cd481610c98565b9050919050565b610ce4816108da565b82525050565b600081519050919050565b60005b83811015610d13578082015181840152602081019050610cf8565b60008484015250505050565b6000610d2a82610cea565b610d348185610b86565b9350610d44818560208601610cf5565b610d4d81610984565b840191505092915050565b600060a082019050610d6d6000830188610b5c565b610d7a6020830187610cdb565b610d876040830186610cdb565b8181036060830152610d998185610d1f565b9050610da86080830184610b5c565b9695505050505050565b7f4e487b7100000000000000000000000000000000000000000000000000000000600052601160045260246000fd5b6000610dec826108da565b9150610df7836108da565b9250828202610e05816108da565b91508282048414831517610e1c57610e1b610db2565b5b5092915050565b6000610e2e826108da565b9150610e39836108da565b9250828201905080821115610e5157610e50610db2565b5b92915050565b6000608082019050610e6c6000830187610cdb565b610e796020830186610cdb565b8181036040830152610e8b8185610d1f565b9050610e9a6060830184610b5c565b9594505050505056fe60806040526000600660006101000a81548160ff02191690831515021790555034801561002b57600080fd5b50604051611c2e380380611c2e833981810160405281019061004d9190610317565b846000806101000a81548173ffffffffffffffffffffffffffffffffffffffff021916908373ffffffffffffffffffffffffffffffffffffffff16021790555083600181905550610e10836100a291906103dd565b426100ad919061041f565b60028190555081600590816100c2919061066a565b5080600460006101000a81548173ffffffffffffffffffffffffffffffffffffffff021916908373ffffffffffffffffffffffffffffffffffffffff160217905550505050505061073c565b6000604051905090565b600080fd5b600080fd5b600073ffffffffffffffffffffffffffffffffffffffff82169050919050565b600061014d82610122565b9050919050565b61015d81610142565b811461016857600080fd5b50565b60008151905061017a81610154565b92915050565b6000819050919050565b61019381610180565b811461019e57600080fd5b50565b6000815190506101b08161018a565b92915050565b600080fd5b600080fd5b6000601f19601f8301169050919050565b7f4e487b7100000000000000000000000000000000000000000000000000000000600052604160045260246000fd5b610209826101c0565b810181811067ffffffffffffffff82111715610228576102276101d1565b5b80604052505050565b600061023b61010e565b90506102478282610200565b919050565b600067ffffffffffffffff821115610267576102666101d1565b5b610270826101c0565b9050602081019050919050565b60005b8381101561029b578082015181840152602081019050610280565b60008484015250505050565b60006102ba6102b58461024c565b610231565b9050828152602081018484840111156102d6576102d56101bb565b5b6102e184828561027d565b509392505050565b600082601f8301126102fe576102fd6101b6565b5b815161030e8482602086016102a7565b91505092915050565b600080600080600060a0868803121561033357610332610118565b5b60006103418882890161016b565b9550506020610352888289016101a1565b9450506040610363888289016101a1565b935050606086015167ffffffffffffffff8111156103845761038361011d565b5b610390888289016102e9565b92505060806103a18882890161016b565b9150509295509295909350565b7f4e487b7100000000000000000000000000000000000000000000000000000000600052601160045260246000fd5b60006103e882610180565b91506103f383610180565b925082820261040181610180565b91508282048414831517610418576104176103ae565b5b5092915050565b600061042a82610180565b915061043583610180565b925082820190508082111561044d5761044c6103ae565b5b92915050565b600081519050919050565b7f4e487b7100000000000000000000000000000000000000000000000000000000600052602260045260246000fd5b600060028204905060018216806104a557607f821691505b6020821081036104b8576104b761045e565b5b50919050565b60008190508160005260206000209050919050565b60006020601f8301049050919050565b600082821b905092915050565b6000600883026105207fffffffffffffffffffffffffffffffffffffffffffffffffffffffffffffffff826104e3565b61052a86836104e3565b95508019841693508086168417925050509392505050565b6000819050919050565b600061056761056261055d84610180565b610542565b610180565b9050919050565b6000819050919050565b6105818361054c565b61059561058d8261056e565b8484546104f0565b825550505050565b600090565b6105aa61059d565b6105b5818484610578565b505050565b5b818110156105d9576105ce6000826105a2565b6001810190506105bb565b5050565b601f82111561061e576105ef816104be565b6105f8846104d3565b81016020851015610607578190505b61061b610613856104d3565b8301826105ba565b50505b505050565b600082821c905092915050565b600061064160001984600802610623565b1980831691505092915050565b600061065a8383610630565b9150826002028217905092915050565b61067382610453565b67ffffffffffffffff81111561068c5761068b6101d1565b5b610696825461048d565b6106a18282856105dd565b600060209050601f8311600181146106d457600084156106c2578287015190505b6106cc858261064e565b865550610734565b601f1984166106e2866104be565b60005b8281101561070a578489015182556001820191506020850194506020810190506106e5565b868310156107275784890151610723601f891682610630565b8355505b6001600288020188555050505b505050505050565b6114e38061074b6000396000f3fe6080604052600436106100e15760003560e01c806360246c881161007f5780638da5cb5b116100595780638da5cb5b146102ef578063d7bb99ba1461031a578063f18d20be14610324578063f851a4401461033b57610156565b806360246c881461027057806372b0d90c1461029b5780637b352962146102c457610156565b80633ccfd60b116100bb5780633ccfd60b146101da57806340193883146101f157806342e94c901461021c578063590e1ae31461025957610156565b8063023f41471461015b5780630fc9fc291461018657806329dcb0cf146101af57610156565b366101565734600360008282546100f89190610da6565b9250508190555034600760003373ffffffffffffffffffffffffffffffffffffffff1673ffffffffffffffffffffffffffffffffffffffff168152602001908152602001600020600082825461014e9190610da6565b925050819055005b600080fd5b34801561016757600080fd5b50610170610366565b60405161017d9190610de9565b60405180910390f35b34801561019257600080fd5b506101ad60048036038101906101a89190610e67565b61036c565b005b3480156101bb57600080fd5b506101c4610446565b6040516101d19190610de9565b60405180910390f35b3480156101e657600080fd5b506101ef61044c565b005b3480156101fd57600080fd5b50610206610644565b6040516102139190610de9565b60405180910390f35b34801561022857600080fd5b50610243600480360381019061023e9190610e67565b61064a565b6040516102509190610de9565b60405180910390f35b34801561026557600080fd5b5061026e610662565b005b34801561027c57600080fd5b50610285610803565b6040516102929190610fb8565b60405180910390f35b3480156102a757600080fd5b506102c260048036038101906102bd9190610e67565b6108fd565b005b3480156102d057600080fd5b506102d9610ad8565b6040516102e69190610ff5565b60405180910390f35b3480156102fb57600080fd5b50610304610aeb565b604051610311919061101f565b60405180910390f35b610322610b0f565b005b34801561033057600080fd5b50610339610c07565b005b34801561034757600080fd5b50610350610d02565b60405161035d919061101f565b60405180910390f35b60035481565b600460009054906101000a900473ffffffffffffffffffffffffffffffffffffffff1673ffffffffffffffffffffffffffffffffffffffff163373ffffffffffffffffffffffffffffffffffffffff16146103fc576040517f08c379a00000000000000000000000000000000000000000000000000000000081526004016103f390611097565b60405180910390fd5b8073ffffffffffffffffffffffffffffffffffffffff166108fc479081150290604051600060405180830381858888f19350505050158015610442573d6000803e3d6000fd5b5050565b60025481565b60008054906101000a900473ffffffffffffffffffffffffffffffffffffffff1673ffffffffffffffffffffffffffffffffffffffff163373ffffffffffffffffffffffffffffffffffffffff16146104da576040517f08c379a00000000000000000000000000000000000000000000000000000000081526004016104d190611103565b60405180910390fd5b6001546003541015610521576040517f08c379a00000000000000000000000000000000000000000000000000000000081526004016105189061116f565b60405180910390fd5b600047905060008054906101000a900473ffffffffffffffffffffffffffffffffffffffff1673ffffffffffffffffffffffffffffffffffffffff166108fc601460648461056f91906111be565b61057991906111ef565b9081150290604051600060405180830381858888f193505050501580156105a4573d6000803e3d6000fd5b50600460009054906101000a900473ffffffffffffffffffffffffffffffffffffffff1673ffffffffffffffffffffffffffffffffffffffff166108fc60506064846105f091906111be565b6105fa91906111ef565b9081150290604051600060405180830381858888f19350505050158015610625573d6000803e3d6000fd5b506001600660006101000a81548160ff02191690831515021790555050565b60015481565b60076020528060005260406000206000915090505481565b6002544210156106a7576040517f08c379a000000000000000000000000000000000000000000000000000000000815260040161069e9061127d565b60405180910390fd5b600154600354106106ed576040517f08c379a00000000000000000000000000000000000000000000000000000000081526004016106e4906112e9565b60405180910390fd5b6000600760003373ffffffffffffffffffffffffffffffffffffffff1673ffffffffffffffffffffffffffffffffffffffff16815260200190815260200160002054905060008111610774576040517f08c379a000000000000000000000000000000000000000000000000000000000815260040161076b90611355565b60405180910390fd5b6000600760003373ffffffffffffffffffffffffffffffffffffffff1673ffffffffffffffffffffffffffffffffffffffff168152602001908152602001600020819055503373ffffffffffffffffffffffffffffffffffffffff166108fc829081150290604051600060405180830381858888f193505050501580156107ff573d6000803e3d6000fd5b5050565b61080b610d28565b6040518060a0016040528060008054906101000a900473ffffffffffffffffffffffffffffffffffffffff1673ffffffffffffffffffffffffffffffffffffffff16815260200160015481526020016002548152602001600354815260200160058054610877906113a4565b80601f01602080910402602001604051908101604052809291908181526020018280546108a3906113a4565b80156108f05780601f106108c5576101008083540402835291602001916108f0565b820191906000526020600020905b8154815290600101906020018083116108d357829003601f168201915b5050505050815250905090565b600460009054906101000a900473ffffffffffffffffffffffffffffffffffffffff1673ffffffffffffffffffffffffffffffffffffffff163373ffffffffffffffffffffffffffffffffffffffff161461098d576040517f08c379a000000000000000000000000000000000000000000000000000000000815260040161098490611103565b60405180910390fd5b60015460035410156109d4576040517f08c379a00000000000000000000000000000000000000000000000000000000081526004016109cb9061116f565b60405180910390fd5b60004790508173ffffffffffffffffffffffffffffffffffffffff166108fc6014606484610a0291906111be565b610a0c91906111ef565b9081150290604051600060405180830381858888f19350505050158015610a37573d6000803e3d6000fd5b50600460009054906101000a900473ffffffffffffffffffffffffffffffffffffffff1673ffffffffffffffffffffffffffffffffffffffff166108fc6050606484610a8391906111be565b610a8d91906111ef565b9081150290604051600060405180830381858888f19350505050158015610ab8573d6000803e3d6000fd5b506001600660006101000a81548160ff0219169083151502179055505050565b600660009054906101000a900460ff1681565b60008054906101000a900473ffffffffffffffffffffffffffffffffffffffff1681565b6002544210610b53576040517f08c379a0000000000000000000000000000000000000000000000000000000008152600401610b4a90611421565b60405180910390fd5b60003411610b96576040517f08c379a0000000000000000000000000000000000000000000000000000000008152600401610b8d9061148d565b60405180910390fd5b34600760003373ffffffffffffffffffffffffffffffffffffffff1673ffffffffffffffffffffffffffffffffffffffff1681526020019081526020016000206000828254610be59190610da6565b925050819055503460036000828254610bfe9190610da6565b92505081905550565b600460009054906101000a900473ffffffffffffffffffffffffffffffffffffffff1673ffffffffffffffffffffffffffffffffffffffff163373ffffffffffffffffffffffffffffffffffffffff1614610c97576040517f08c379a0000000000000000000000000000000000000000000000000000000008152600401610c8e90611097565b60405180910390fd5b600460009054906101000a900473ffffffffffffffffffffffffffffffffffffffff1673ffffffffffffffffffffffffffffffffffffffff166108fc479081150290604051600060405180830381858888f19350505050158015610cff573d6000803e3d6000fd5b50565b600460009054906101000a900473ffffffffffffffffffffffffffffffffffffffff1681565b6040518060a00160405280600073ffffffffffffffffffffffffffffffffffffffff168152602001600081526020016000815260200160008152602001606081525090565b6000819050919050565b7f4e487b7100000000000000000000000000000000000000000000000000000000600052601160045260246000fd5b6000610db182610d6d565b9150610dbc83610d6d565b9250828201905080821115610dd457610dd3610d77565b5b92915050565b610de381610d6d565b82525050565b6000602082019050610dfe6000830184610dda565b92915050565b600080fd5b600073ffffffffffffffffffffffffffffffffffffffff82169050919050565b6000610e3482610e09565b9050919050565b610e4481610e29565b8114610e4f57600080fd5b50565b600081359050610e6181610e3b565b92915050565b600060208284031215610e7d57610e7c610e04565b5b6000610e8b84828501610e52565b91505092915050565b610e9d81610e29565b82525050565b610eac81610d6d565b82525050565b600081519050919050565b600082825260208201905092915050565b60005b83811015610eec578082015181840152602081019050610ed1565b60008484015250505050565b6000601f19601f8301169050919050565b6000610f1482610eb2565b610f1e8185610ebd565b9350610f2e818560208601610ece565b610f3781610ef8565b840191505092915050565b600060a083016000830151610f5a6000860182610e94565b506020830151610f6d6020860182610ea3565b506040830151610f806040860182610ea3565b506060830151610f936060860182610ea3565b5060808301518482036080860152610fab8282610f09565b9150508091505092915050565b60006020820190508181036000830152610fd28184610f42565b905092915050565b60008115159050919050565b610fef81610fda565b82525050565b600060208201905061100a6000830184610fe6565b92915050565b61101981610e29565b82525050565b60006020820190506110346000830184611010565b92915050565b600082825260208201905092915050565b7f4e6f742061646d696e0000000000000000000000000000000000000000000000600082015250565b600061108160098361103a565b915061108c8261104b565b602082019050919050565b600060208201905081810360008301526110b081611074565b9050919050565b7f4e6f74206f776e65720000000000000000000000000000000000000000000000600082015250565b60006110ed60098361103a565b91506110f8826110b7565b602082019050919050565b6000602082019050818103600083015261111c816110e0565b9050919050565b7f476f616c206e6f74206d65740000000000000000000000000000000000000000600082015250565b6000611159600c8361103a565b915061116482611123565b602082019050919050565b600060208201905081810360008301526111888161114c565b9050919050565b7f4e487b7100000000000000000000000000000000000000000000000000000000600052601260045260246000fd5b60006111c982610d6d565b91506111d483610d6d565b9250826111e4576111e361118f565b5b828204905092915050565b60006111fa82610d6d565b915061120583610d6d565b925082820261121381610d6d565b9150828204841483151761122a57611229610d77565b5b5092915050565b7f446561646c696e65206e6f742072656163686564000000000000000000000000600082015250565b600061126760148361103a565b915061127282611231565b602082019050919050565b600060208201905081810360008301526112968161125a565b9050919050565b7f476f616c20776173206d65740000000000000000000000000000000000000000600082015250565b60006112d3600c8361103a565b91506112de8261129d565b602082019050919050565b60006020820190508181036000830152611302816112c6565b9050919050565b7f4e6f20636f6e747269627574696f6e7300000000000000000000000000000000600082015250565b600061133f60108361103a565b915061134a82611309565b602082019050919050565b6000602082019050818103600083015261136e81611332565b9050919050565b7f4e487b7100000000000000000000000000000000000000000000000000000000600052602260045260246000fd5b600060028204905060018216806113bc57607f821691505b6020821081036113cf576113ce611375565b5b50919050565b7f446561646c696e65207061737365640000000000000000000000000000000000600082015250565b600061140b600f8361103a565b9150611416826113d5565b602082019050919050565b6000602082019050818103600083015261143a816113fe565b9050919050565b7f436f6e747269627574696f6e206d757374206265203e20300000000000000000600082015250565b600061147760188361103a565b915061148282611441565b602082019050919050565b600060208201905081810360008301526114a68161146a565b905091905056fea26469706673582212200578baf4a05ee3c250726cb2dfee307a80ac6134b157fb239f3ab391af825f2864736f6c634300081c0033a2646970667358221220b9e2daea4578140b7fab3cf409d62f9c40c0543b0c480918d86bbc34961cad0c64736f6c634300081c0033",
  "linkReferences": {},
  "deployedLinkReferences": {}
}