{
  "_format": "hh-sol-artifact-1",
  "contractName": "CryptoFundRacing",
  "sourceName": "contracts/CryptoFundRacing.sol",
  "abi": [
    {
      "inputs": [],
      "stateMutability": "nonpayable",
      "type": "constructor"
    },
    {
      "anonymous": false,
      "inputs": [
        {
          "indexed": true,
          "internalType": "address",
          "name": "poolAddress",
          "type": "address"
        },
        {
          "indexed": true,
          "internalType": "address",
          "name": "owner",
          "type": "address"
        },
        {
          "indexed": false,
          "internalType": "uint256",
          "name": "goal",
          "type": "uint256"
        },
        {
          "indexed": false,
          "internalType": "uint256",
          "name": "deadline",
          "type": "uint256"
        },
        {
          "indexed": false,
          "internalType": "string",
          "name": "socialLink",
          "type": "string"
        },
        {
          "indexed": false,
          "internalType": "address",
          "name": "_admin",
          "type": "address"
        },
        {
          "indexed": false,
          "internalType": "string",
          "name": "purpose",
          "type": "string"
        },
        {
          "indexed": false,
          "internalType": "string",
          "name": "imageUrl",
          "type": "string"
        },
        {
          "indexed": false,
          "internalType": "uint256",
          "name": "royalty",
          "type": "uint256"
        }
      ],
      "name": "PoolCreated",
      "type": "event"
    },
    {
      "inputs": [],
      "name": "admin",
      "outputs": [
        {
          "internalType": "address",
          "name": "",
          "type": "address"
        }
      ],
      "stateMutability": "view",
      "type": "function"
    },
    {
      "inputs": [
        {
          "internalType": "uint256",
          "name": "goal",
          "type": "uint256"
        },
        {
          "internalType": "uint256",
          "name": "durationInHours",
          "type": "uint256"
        },
        {
          "internalType": "string",
          "name": "socialLink",
          "type": "string"
        },
        {
          "internalType": "string",
          "name": "purpose",
          "type": "string"
        },
        {
          "internalType": "string",
          "name": "imageUrl",
          "type": "string"
        }
      ],
      "name": "createPool",
      "outputs": [],
      "stateMutability": "nonpayable",
      "type": "function"
    },
    {
      "inputs": [],
      "name": "getAllPools",
      "outputs": [
        {
          "internalType": "contract Pool[]",
          "name": "",
          "type": "address[]"
        }
      ],
      "stateMutability": "view",
      "type": "function"
    },
    {
      "inputs": [
        {
          "internalType": "address",
          "name": "owner",
          "type": "address"
        }
      ],
      "name": "getPoolsByOwner",
      "outputs": [
        {
          "internalType": "contract Pool[]",
          "name": "",
          "type": "address[]"
        }
      ],
      "stateMutability": "view",
      "type": "function"
    },
    {
      "inputs": [
        {
          "internalType": "uint256",
          "name": "",
          "type": "uint256"
        }
      ],
      "name": "pools",
      "outputs": [
        {
          "internalType": "contract Pool",
          "name": "",
          "type": "address"
        }
      ],
      "stateMutability": "view",
      "type": "function"
    },
    {
      "inputs": [
        {
          "internalType": "address",
          "name": "",
          "type": "address"
        },
        {
          "internalType": "uint256",
          "name": "",
          "type": "uint256"
        }
      ],
      "name": "poolsByOwner",
      "outputs": [
        {
          "internalType": "contract Pool",
          "name": "",
          "type": "address"
        }
      ],
      "stateMutability": "view",
      "type": "function"
    },
    {
      "inputs": [],
      "name": "royalty",
      "outputs": [
        {
          "internalType": "uint256",
          "name": "",
          "type": "uint256"
        }
      ],
      "stateMutability": "view",
      "type": "function"
    },
    {
      "inputs": [
        {
          "internalType": "address",
          "name": "_admin",
          "type": "address"
        }
      ],
      "name": "setAdmin",
      "outputs": [],
      "stateMutability": "nonpayable",
      "type": "function"
    },
    {
      "inputs": [
        {
          "internalType": "uint256",
          "name": "_royalty",
          "type": "uint256"
        }
      ],
      "name": "setRoyalty",
      "outputs": [],
      "stateMutability": "nonpayable",
      "type": "function"
    }
  ],
  "bytecode": "0x6080604052348015600f57600080fd5b5033600260006101000a81548173ffffffffffffffffffffffffffffffffffffffff021916908373ffffffffffffffffffffffffffffffffffffffff160217905550613277806100606000396000f3fe608060405234801561001057600080fd5b50600436106100935760003560e01c8063704b6c0211610066578063704b6c021461011e578063738b31df1461013a578063ac4afa381461016a578063d88ff1f41461019a578063f851a440146101b857610093565b80631c7a1e451461009857806329ee566c146100b45780634209a2e1146100d25780636a608136146100ee575b600080fd5b6100b260048036038101906100ad91906109e0565b6101d6565b005b6100bc61047e565b6040516100c99190610abe565b60405180910390f35b6100ec60048036038101906100e79190610ad9565b610484565b005b61010860048036038101906101039190610b64565b610561565b6040516101159190610c9f565b60405180910390f35b61013860048036038101906101339190610b64565b61062e565b005b610154600480360381019061014f9190610cc1565b610702565b6040516101619190610d10565b60405180910390f35b610184600480360381019061017f9190610ad9565b610750565b6040516101919190610d10565b60405180910390f35b6101a261078f565b6040516101af9190610c9f565b60405180910390f35b6101c061081d565b6040516101cd9190610d3a565b60405180910390f35b60008511610219576040517f08c379a000000000000000000000000000000000000000000000000000000000815260040161021090610db2565b60405180910390fd5b6000841161025c576040517f08c379a000000000000000000000000000000000000000000000000000000000815260040161025390610e1e565b60405180910390fd5b600033868686600260009054906101000a900473ffffffffffffffffffffffffffffffffffffffff16878760035460405161029690610843565b6102a7989796959493929190610eac565b604051809103906000f0801580156102c3573d6000803e3d6000fd5b5090506000819080600181540180825580915050600190039060005260206000200160009091909190916101000a81548173ffffffffffffffffffffffffffffffffffffffff021916908373ffffffffffffffffffffffffffffffffffffffff160217905550600160003373ffffffffffffffffffffffffffffffffffffffff1673ffffffffffffffffffffffffffffffffffffffff168152602001908152602001600020819080600181540180825580915050600190039060005260206000200160009091909190916101000a81548173ffffffffffffffffffffffffffffffffffffffff021916908373ffffffffffffffffffffffffffffffffffffffff1602179055503373ffffffffffffffffffffffffffffffffffffffff168173ffffffffffffffffffffffffffffffffffffffff167ffbf0b22b37a472a6433d0a7c98a1e0eeccb113f3d1da556114c59a02e5da3f7488610e10896104279190610f6e565b426104329190610fb0565b88600260009054906101000a900473ffffffffffffffffffffffffffffffffffffffff16898960035460405161046e9796959493929190610fe4565b60405180910390a3505050505050565b60035481565b600260009054906101000a900473ffffffffffffffffffffffffffffffffffffffff1673ffffffffffffffffffffffffffffffffffffffff163373ffffffffffffffffffffffffffffffffffffffff1614610514576040517f08c379a000000000000000000000000000000000000000000000000000000000815260040161050b906110b4565b60405180910390fd5b60648110610557576040517f08c379a000000000000000000000000000000000000000000000000000000000815260040161054e90611120565b60405180910390fd5b8060038190555050565b6060600160008373ffffffffffffffffffffffffffffffffffffffff1673ffffffffffffffffffffffffffffffffffffffff16815260200190815260200160002080548060200260200160405190810160405280929190818152602001828054801561062257602002820191906000526020600020905b8160009054906101000a900473ffffffffffffffffffffffffffffffffffffffff1673ffffffffffffffffffffffffffffffffffffffff16815260200190600101908083116105d8575b50505050509050919050565b600260009054906101000a900473ffffffffffffffffffffffffffffffffffffffff1673ffffffffffffffffffffffffffffffffffffffff163373ffffffffffffffffffffffffffffffffffffffff16146106be576040517f08c379a00000000000000000000000000000000000000000000000000000000081526004016106b5906110b4565b60405180910390fd5b80600260006101000a81548173ffffffffffffffffffffffffffffffffffffffff021916908373ffffffffffffffffffffffffffffffffffffffff16021790555050565b6001602052816000526040600020818154811061071e57600080fd5b906000526020600020016000915091509054906101000a900473ffffffffffffffffffffffffffffffffffffffff1681565b6000818154811061076057600080fd5b906000526020600020016000915054906101000a900473ffffffffffffffffffffffffffffffffffffffff1681565b6060600080548060200260200160405190810160405280929190818152602001828054801561081357602002820191906000526020600020905b8160009054906101000a900473ffffffffffffffffffffffffffffffffffffffff1673ffffffffffffffffffffffffffffffffffffffff16815260200190600101908083116107c9575b5050505050905090565b600260009054906101000a900473ffffffffffffffffffffffffffffffffffffffff1681565b6121018061114183390190565b6000604051905090565b600080fd5b600080fd5b6000819050919050565b61087781610864565b811461088257600080fd5b50565b6000813590506108948161086e565b92915050565b600080fd5b600080fd5b6000601f19601f8301169050919050565b7f4e487b7100000000000000000000000000000000000000000000000000000000600052604160045260246000fd5b6108ed826108a4565b810181811067ffffffffffffffff8211171561090c5761090b6108b5565b5b80604052505050565b600061091f610850565b905061092b82826108e4565b919050565b600067ffffffffffffffff82111561094b5761094a6108b5565b5b610954826108a4565b9050602081019050919050565b82818337600083830152505050565b600061098361097e84610930565b610915565b90508281526020810184848401111561099f5761099e61089f565b5b6109aa848285610961565b509392505050565b600082601f8301126109c7576109c661089a565b5b81356109d7848260208601610970565b91505092915050565b600080600080600060a086880312156109fc576109fb61085a565b5b6000610a0a88828901610885565b9550506020610a1b88828901610885565b945050604086013567ffffffffffffffff811115610a3c57610a3b61085f565b5b610a48888289016109b2565b935050606086013567ffffffffffffffff811115610a6957610a6861085f565b5b610a75888289016109b2565b925050608086013567ffffffffffffffff811115610a9657610a9561085f565b5b610aa2888289016109b2565b9150509295509295909350565b610ab881610864565b82525050565b6000602082019050610ad36000830184610aaf565b92915050565b600060208284031215610aef57610aee61085a565b5b6000610afd84828501610885565b91505092915050565b600073ffffffffffffffffffffffffffffffffffffffff82169050919050565b6000610b3182610b06565b9050919050565b610b4181610b26565b8114610b4c57600080fd5b50565b600081359050610b5e81610b38565b92915050565b600060208284031215610b7a57610b7961085a565b5b6000610b8884828501610b4f565b91505092915050565b600081519050919050565b600082825260208201905092915050565b6000819050602082019050919050565b6000819050919050565b6000610be2610bdd610bd884610b06565b610bbd565b610b06565b9050919050565b6000610bf482610bc7565b9050919050565b6000610c0682610be9565b9050919050565b610c1681610bfb565b82525050565b6000610c288383610c0d565b60208301905092915050565b6000602082019050919050565b6000610c4c82610b91565b610c568185610b9c565b9350610c6183610bad565b8060005b83811015610c92578151610c798882610c1c565b9750610c8483610c34565b925050600181019050610c65565b5085935050505092915050565b60006020820190508181036000830152610cb98184610c41565b905092915050565b60008060408385031215610cd857610cd761085a565b5b6000610ce685828601610b4f565b9250506020610cf785828601610885565b9150509250929050565b610d0a81610bfb565b82525050565b6000602082019050610d256000830184610d01565b92915050565b610d3481610b26565b82525050565b6000602082019050610d4f6000830184610d2b565b92915050565b600082825260208201905092915050565b7f476f616c206d757374206265203e203000000000000000000000000000000000600082015250565b6000610d9c601083610d55565b9150610da782610d66565b602082019050919050565b60006020820190508181036000830152610dcb81610d8f565b9050919050565b7f4475726174696f6e206d757374206265203e2030000000000000000000000000600082015250565b6000610e08601483610d55565b9150610e1382610dd2565b602082019050919050565b60006020820190508181036000830152610e3781610dfb565b9050919050565b600081519050919050565b60005b83811015610e67578082015181840152602081019050610e4c565b60008484015250505050565b6000610e7e82610e3e565b610e888185610d55565b9350610e98818560208601610e49565b610ea1816108a4565b840191505092915050565b600061010082019050610ec2600083018b610d2b565b610ecf602083018a610aaf565b610edc6040830189610aaf565b8181036060830152610eee8188610e73565b9050610efd6080830187610d2b565b81810360a0830152610f0f8186610e73565b905081810360c0830152610f238185610e73565b9050610f3260e0830184610aaf565b9998505050505050505050565b7f4e487b7100000000000000000000000000000000000000000000000000000000600052601160045260246000fd5b6000610f7982610864565b9150610f8483610864565b9250828202610f9281610864565b91508282048414831517610fa957610fa8610f3f565b5b5092915050565b6000610fbb82610864565b9150610fc683610864565b9250828201905080821115610fde57610fdd610f3f565b5b92915050565b600060e082019050610ff9600083018a610aaf565b6110066020830189610aaf565b81810360408301526110188188610e73565b90506110276060830187610d2b565b81810360808301526110398186610e73565b905081810360a083015261104d8185610e73565b905061105c60c0830184610aaf565b98975050505050505050565b7f4e6f742061646d696e0000000000000000000000000000000000000000000000600082015250565b600061109e600983610d55565b91506110a982611068565b602082019050919050565b600060208201905081810360008301526110cd81611091565b9050919050565b7f526f79616c7479206d757374206265206c6f776572207468616e203130300000600082015250565b600061110a601e83610d55565b9150611115826110d4565b602082019050919050565b60006020820190508181036000830152611139816110fd565b905091905056fe60806040526000600960006101000a81548160ff02191690831515021790555034801561002b57600080fd5b50604051612101380380612101833981810160405281019061004d9190610341565b876000806101000a81548173ffffffffffffffffffffffffffffffffffffffff021916908373ffffffffffffffffffffffffffffffffffffffff16021790555086600181905550610e10866100a2919061047a565b426100ad91906104bc565b60028190555084600690816100c29190610707565b5083600560006101000a81548173ffffffffffffffffffffffffffffffffffffffff021916908373ffffffffffffffffffffffffffffffffffffffff16021790555082600790816101139190610707565b5081600890816101239190610707565b508060048190555050505050505050506107d9565b6000604051905090565b600080fd5b600080fd5b600073ffffffffffffffffffffffffffffffffffffffff82169050919050565b60006101778261014c565b9050919050565b6101878161016c565b811461019257600080fd5b50565b6000815190506101a48161017e565b92915050565b6000819050919050565b6101bd816101aa565b81146101c857600080fd5b50565b6000815190506101da816101b4565b92915050565b600080fd5b600080fd5b6000601f19601f8301169050919050565b7f4e487b7100000000000000000000000000000000000000000000000000000000600052604160045260246000fd5b610233826101ea565b810181811067ffffffffffffffff82111715610252576102516101fb565b5b80604052505050565b6000610265610138565b9050610271828261022a565b919050565b600067ffffffffffffffff821115610291576102906101fb565b5b61029a826101ea565b9050602081019050919050565b60005b838110156102c55780820151818401526020810190506102aa565b60008484015250505050565b60006102e46102df84610276565b61025b565b905082815260208101848484011115610300576102ff6101e5565b5b61030b8482856102a7565b509392505050565b600082601f830112610328576103276101e0565b5b81516103388482602086016102d1565b91505092915050565b600080600080600080600080610100898b03121561036257610361610142565b5b60006103708b828c01610195565b98505060206103818b828c016101cb565b97505060406103928b828c016101cb565b965050606089015167ffffffffffffffff8111156103b3576103b2610147565b5b6103bf8b828c01610313565b95505060806103d08b828c01610195565b94505060a089015167ffffffffffffffff8111156103f1576103f0610147565b5b6103fd8b828c01610313565b93505060c089015167ffffffffffffffff81111561041e5761041d610147565b5b61042a8b828c01610313565b92505060e061043b8b828c016101cb565b9150509295985092959890939650565b7f4e487b7100000000000000000000000000000000000000000000000000000000600052601160045260246000fd5b6000610485826101aa565b9150610490836101aa565b925082820261049e816101aa565b915082820484148315176104b5576104b461044b565b5b5092915050565b60006104c7826101aa565b91506104d2836101aa565b92508282019050808211156104ea576104e961044b565b5b92915050565b600081519050919050565b7f4e487b7100000000000000000000000000000000000000000000000000000000600052602260045260246000fd5b6000600282049050600182168061054257607f821691505b602082108103610555576105546104fb565b5b50919050565b60008190508160005260206000209050919050565b60006020601f8301049050919050565b600082821b905092915050565b6000600883026105bd7fffffffffffffffffffffffffffffffffffffffffffffffffffffffffffffffff82610580565b6105c78683610580565b95508019841693508086168417925050509392505050565b6000819050919050565b60006106046105ff6105fa846101aa565b6105df565b6101aa565b9050919050565b6000819050919050565b61061e836105e9565b61063261062a8261060b565b84845461058d565b825550505050565b600090565b61064761063a565b610652818484610615565b505050565b5b818110156106765761066b60008261063f565b600181019050610658565b5050565b601f8211156106bb5761068c8161055b565b61069584610570565b810160208510156106a4578190505b6106b86106b085610570565b830182610657565b50505b505050565b600082821c905092915050565b60006106de600019846008026106c0565b1980831691505092915050565b60006106f783836106cd565b9150826002028217905092915050565b610710826104f0565b67ffffffffffffffff811115610729576107286101fb565b5b610733825461052a565b61073e82828561067a565b600060209050601f831160018114610771576000841561075f578287015190505b61076985826106eb565b8655506107d1565b601f19841661077f8661055b565b60005b828110156107a757848901518255600182019150602085019450602081019050610782565b868310156107c457848901516107c0601f8916826106cd565b8355505b6001600288020188555050505b505050505050565b611919806107e86000396000f3fe6080604052600436106101025760003560e01c8063590e1ae3116100955780637b352962116100645780637b352962146103645780638da5cb5b1461038f578063d7bb99ba146103ba578063f18d20be146103c4578063f851a440146103db57610177565b8063590e1ae3146102ce57806360246c88146102e55780636c15c9191461031057806372b0d90c1461033b57610177565b80633ccfd60b116100d15780633ccfd60b14610226578063401938831461023d5780634209a2e11461026857806342e94c901461029157610177565b8063023f41471461017c5780630fc9fc29146101a757806329dcb0cf146101d057806329ee566c146101fb57610177565b36610177573460036000828254610119919061109b565b9250508190555034600a60003373ffffffffffffffffffffffffffffffffffffffff1673ffffffffffffffffffffffffffffffffffffffff168152602001908152602001600020600082825461016f919061109b565b925050819055005b600080fd5b34801561018857600080fd5b50610191610406565b60405161019e91906110de565b60405180910390f35b3480156101b357600080fd5b506101ce60048036038101906101c9919061115c565b61040c565b005b3480156101dc57600080fd5b506101e56104e6565b6040516101f291906110de565b60405180910390f35b34801561020757600080fd5b506102106104ec565b60405161021d91906110de565b60405180910390f35b34801561023257600080fd5b5061023b6104f2565b005b34801561024957600080fd5b506102526106f8565b60405161025f91906110de565b60405180910390f35b34801561027457600080fd5b5061028f600480360381019061028a91906111b5565b6106fe565b005b34801561029d57600080fd5b506102b860048036038101906102b3919061115c565b6107db565b6040516102c591906110de565b60405180910390f35b3480156102da57600080fd5b506102e36107f3565b005b3480156102f157600080fd5b506102fa610994565b604051610307919061134e565b60405180910390f35b34801561031c57600080fd5b50610325610bb7565b604051610332919061138b565b60405180910390f35b34801561034757600080fd5b50610362600480360381019061035d919061115c565b610bce565b005b34801561037057600080fd5b50610379610db7565b604051610386919061138b565b60405180910390f35b34801561039b57600080fd5b506103a4610dca565b6040516103b191906113b5565b60405180910390f35b6103c2610dee565b005b3480156103d057600080fd5b506103d9610ee6565b005b3480156103e757600080fd5b506103f0610fe1565b6040516103fd91906113b5565b60405180910390f35b60035481565b600560009054906101000a900473ffffffffffffffffffffffffffffffffffffffff1673ffffffffffffffffffffffffffffffffffffffff163373ffffffffffffffffffffffffffffffffffffffff161461049c576040517f08c379a00000000000000000000000000000000000000000000000000000000081526004016104939061142d565b60405180910390fd5b8073ffffffffffffffffffffffffffffffffffffffff166108fc479081150290604051600060405180830381858888f193505050501580156104e2573d6000803e3d6000fd5b5050565b60025481565b60045481565b60008054906101000a900473ffffffffffffffffffffffffffffffffffffffff1673ffffffffffffffffffffffffffffffffffffffff163373ffffffffffffffffffffffffffffffffffffffff1614610580576040517f08c379a000000000000000000000000000000000000000000000000000000000815260040161057790611499565b60405180910390fd5b60015460035410156105c7576040517f08c379a00000000000000000000000000000000000000000000000000000000081526004016105be90611505565b60405180910390fd5b600047905060008054906101000a900473ffffffffffffffffffffffffffffffffffffffff1673ffffffffffffffffffffffffffffffffffffffff166108fc6004546064846106169190611554565b6106209190611585565b9081150290604051600060405180830381858888f1935050505015801561064b573d6000803e3d6000fd5b50600560009054906101000a900473ffffffffffffffffffffffffffffffffffffffff1673ffffffffffffffffffffffffffffffffffffffff166108fc600454606461069791906115c7565b6064846106a49190611554565b6106ae9190611585565b9081150290604051600060405180830381858888f193505050501580156106d9573d6000803e3d6000fd5b506001600960006101000a81548160ff02191690831515021790555050565b60015481565b600560009054906101000a900473ffffffffffffffffffffffffffffffffffffffff1673ffffffffffffffffffffffffffffffffffffffff163373ffffffffffffffffffffffffffffffffffffffff161461078e576040517f08c379a00000000000000000000000000000000000000000000000000000000081526004016107859061142d565b60405180910390fd5b606481106107d1576040517f08c379a00000000000000000000000000000000000000000000000000000000081526004016107c890611647565b60405180910390fd5b8060048190555050565b600a6020528060005260406000206000915090505481565b600254421015610838576040517f08c379a000000000000000000000000000000000000000000000000000000000815260040161082f906116b3565b60405180910390fd5b6001546003541061087e576040517f08c379a00000000000000000000000000000000000000000000000000000000081526004016108759061171f565b60405180910390fd5b6000600a60003373ffffffffffffffffffffffffffffffffffffffff1673ffffffffffffffffffffffffffffffffffffffff16815260200190815260200160002054905060008111610905576040517f08c379a00000000000000000000000000000000000000000000000000000000081526004016108fc9061178b565b60405180910390fd5b6000600a60003373ffffffffffffffffffffffffffffffffffffffff1673ffffffffffffffffffffffffffffffffffffffff168152602001908152602001600020819055503373ffffffffffffffffffffffffffffffffffffffff166108fc829081150290604051600060405180830381858888f19350505050158015610990573d6000803e3d6000fd5b5050565b61099c611007565b60405180610100016040528060008054906101000a900473ffffffffffffffffffffffffffffffffffffffff1673ffffffffffffffffffffffffffffffffffffffff16815260200160015481526020016002548152602001600354815260200160068054610a09906117da565b80601f0160208091040260200160405190810160405280929190818152602001828054610a35906117da565b8015610a825780601f10610a5757610100808354040283529160200191610a82565b820191906000526020600020905b815481529060010190602001808311610a6557829003601f168201915b5050505050815260200160078054610a99906117da565b80601f0160208091040260200160405190810160405280929190818152602001828054610ac5906117da565b8015610b125780601f10610ae757610100808354040283529160200191610b12565b820191906000526020600020905b815481529060010190602001808311610af557829003601f168201915b5050505050815260200160088054610b29906117da565b80601f0160208091040260200160405190810160405280929190818152602001828054610b55906117da565b8015610ba25780601f10610b7757610100808354040283529160200191610ba2565b820191906000526020600020905b815481529060010190602001808311610b8557829003601f168201915b50505050508152602001600454815250905090565b6000600960009054906101000a900460ff16905090565b600560009054906101000a900473ffffffffffffffffffffffffffffffffffffffff1673ffffffffffffffffffffffffffffffffffffffff163373ffffffffffffffffffffffffffffffffffffffff1614610c5e576040517f08c379a0000000000000000000000000000000000000000000000000000000008152600401610c5590611499565b60405180910390fd5b6001546003541015610ca5576040517f08c379a0000000000000000000000000000000000000000000000000000000008152600401610c9c90611505565b60405180910390fd5b60004790508173ffffffffffffffffffffffffffffffffffffffff166108fc600454606484610cd49190611554565b610cde9190611585565b9081150290604051600060405180830381858888f19350505050158015610d09573d6000803e3d6000fd5b50600560009054906101000a900473ffffffffffffffffffffffffffffffffffffffff1673ffffffffffffffffffffffffffffffffffffffff166108fc6004546064610d5591906115c7565b606484610d629190611554565b610d6c9190611585565b9081150290604051600060405180830381858888f19350505050158015610d97573d6000803e3d6000fd5b506001600960006101000a81548160ff0219169083151502179055505050565b600960009054906101000a900460ff1681565b60008054906101000a900473ffffffffffffffffffffffffffffffffffffffff1681565b6002544210610e32576040517f08c379a0000000000000000000000000000000000000000000000000000000008152600401610e2990611857565b60405180910390fd5b60003411610e75576040517f08c379a0000000000000000000000000000000000000000000000000000000008152600401610e6c906118c3565b60405180910390fd5b34600a60003373ffffffffffffffffffffffffffffffffffffffff1673ffffffffffffffffffffffffffffffffffffffff1681526020019081526020016000206000828254610ec4919061109b565b925050819055503460036000828254610edd919061109b565b92505081905550565b600560009054906101000a900473ffffffffffffffffffffffffffffffffffffffff1673ffffffffffffffffffffffffffffffffffffffff163373ffffffffffffffffffffffffffffffffffffffff1614610f76576040517f08c379a0000000000000000000000000000000000000000000000000000000008152600401610f6d9061142d565b60405180910390fd5b600560009054906101000a900473ffffffffffffffffffffffffffffffffffffffff1673ffffffffffffffffffffffffffffffffffffffff166108fc479081150290604051600060405180830381858888f19350505050158015610fde573d6000803e3d6000fd5b50565b600560009054906101000a900473ffffffffffffffffffffffffffffffffffffffff1681565b604051806101000160405280600073ffffffffffffffffffffffffffffffffffffffff168152602001600081526020016000815260200160008152602001606081526020016060815260200160608152602001600081525090565b6000819050919050565b7f4e487b7100000000000000000000000000000000000000000000000000000000600052601160045260246000fd5b60006110a682611062565b91506110b183611062565b92508282019050808211156110c9576110c861106c565b5b92915050565b6110d881611062565b82525050565b60006020820190506110f360008301846110cf565b92915050565b600080fd5b600073ffffffffffffffffffffffffffffffffffffffff82169050919050565b6000611129826110fe565b9050919050565b6111398161111e565b811461114457600080fd5b50565b60008135905061115681611130565b92915050565b600060208284031215611172576111716110f9565b5b600061118084828501611147565b91505092915050565b61119281611062565b811461119d57600080fd5b50565b6000813590506111af81611189565b92915050565b6000602082840312156111cb576111ca6110f9565b5b60006111d9848285016111a0565b91505092915050565b6111eb8161111e565b82525050565b6111fa81611062565b82525050565b600081519050919050565b600082825260208201905092915050565b60005b8381101561123a57808201518184015260208101905061121f565b60008484015250505050565b6000601f19601f8301169050919050565b600061126282611200565b61126c818561120b565b935061127c81856020860161121c565b61128581611246565b840191505092915050565b6000610100830160008301516112a960008601826111e2565b5060208301516112bc60208601826111f1565b5060408301516112cf60408601826111f1565b5060608301516112e260608601826111f1565b50608083015184820360808601526112fa8282611257565b91505060a083015184820360a08601526113148282611257565b91505060c083015184820360c086015261132e8282611257565b91505060e083015161134360e08601826111f1565b508091505092915050565b600060208201905081810360008301526113688184611290565b905092915050565b60008115159050919050565b61138581611370565b82525050565b60006020820190506113a0600083018461137c565b92915050565b6113af8161111e565b82525050565b60006020820190506113ca60008301846113a6565b92915050565b600082825260208201905092915050565b7f4e6f742061646d696e0000000000000000000000000000000000000000000000600082015250565b60006114176009836113d0565b9150611422826113e1565b602082019050919050565b600060208201905081810360008301526114468161140a565b9050919050565b7f4e6f74206f776e65720000000000000000000000000000000000000000000000600082015250565b60006114836009836113d0565b915061148e8261144d565b602082019050919050565b600060208201905081810360008301526114b281611476565b9050919050565b7f476f616c206e6f74206d65740000000000000000000000000000000000000000600082015250565b60006114ef600c836113d0565b91506114fa826114b9565b602082019050919050565b6000602082019050818103600083015261151e816114e2565b9050919050565b7f4e487b7100000000000000000000000000000000000000000000000000000000600052601260045260246000fd5b600061155f82611062565b915061156a83611062565b92508261157a57611579611525565b5b828204905092915050565b600061159082611062565b915061159b83611062565b92508282026115a981611062565b915082820484148315176115c0576115bf61106c565b5b5092915050565b60006115d282611062565b91506115dd83611062565b92508282039050818111156115f5576115f461106c565b5b92915050565b7f526f79616c7479206d757374206265206c6f776572207468616e203130300000600082015250565b6000611631601e836113d0565b915061163c826115fb565b602082019050919050565b6000602082019050818103600083015261166081611624565b9050919050565b7f446561646c696e65206e6f742072656163686564000000000000000000000000600082015250565b600061169d6014836113d0565b91506116a882611667565b602082019050919050565b600060208201905081810360008301526116cc81611690565b9050919050565b7f476f616c20776173206d65740000000000000000000000000000000000000000600082015250565b6000611709600c836113d0565b9150611714826116d3565b602082019050919050565b60006020820190508181036000830152611738816116fc565b9050919050565b7f4e6f20636f6e747269627574696f6e7300000000000000000000000000000000600082015250565b60006117756010836113d0565b91506117808261173f565b602082019050919050565b600060208201905081810360008301526117a481611768565b9050919050565b7f4e487b7100000000000000000000000000000000000000000000000000000000600052602260045260246000fd5b600060028204905060018216806117f257607f821691505b602082108103611805576118046117ab565b5b50919050565b7f446561646c696e65207061737365640000000000000000000000000000000000600082015250565b6000611841600f836113d0565b915061184c8261180b565b602082019050919050565b6000602082019050818103600083015261187081611834565b9050919050565b7f436f6e747269627574696f6e206d757374206265203e20300000000000000000600082015250565b60006118ad6018836113d0565b91506118b882611877565b602082019050919050565b600060208201905081810360008301526118dc816118a0565b905091905056fea2646970667358221220a352c2f910da598fbd29bb86074e665fa6ce775fd62be7585ebfe5f00aae001164736f6c634300081c0033a26469706673582212205d9503a7e53bf7a4806cac70b19fc1ca6c44b483ceedf5f3d600fd9eadbb280564736f6c634300081c0033",
  "linkReferences": {},
  "deployedLinkReferences": {}
}