{
  "_format": "hh-sol-artifact-1",
  "contractName": "CryptoFundRacing",
  "sourceName": "contracts/CryptoFundRacing.sol",
  "abi": [
    {
      "inputs": [],
      "stateMutability": "nonpayable",
      "type": "constructor"
    },
    {
      "anonymous": false,
      "inputs": [
        {
          "indexed": true,
          "internalType": "address",
          "name": "poolAddress",
          "type": "address"
        },
        {
          "indexed": true,
          "internalType": "address",
          "name": "owner",
          "type": "address"
        },
        {
          "indexed": false,
          "internalType": "uint256",
          "name": "goal",
          "type": "uint256"
        },
        {
          "indexed": false,
          "internalType": "uint256",
          "name": "deadline",
          "type": "uint256"
        },
        {
          "indexed": false,
          "internalType": "string",
          "name": "socialLink",
          "type": "string"
        },
        {
          "indexed": false,
          "internalType": "address",
          "name": "_admin",
          "type": "address"
        },
        {
          "indexed": false,
          "internalType": "string",
          "name": "purpose",
          "type": "string"
        }
      ],
      "name": "PoolCreated",
      "type": "event"
    },
    {
      "inputs": [],
      "name": "admin",
      "outputs": [
        {
          "internalType": "address",
          "name": "",
          "type": "address"
        }
      ],
      "stateMutability": "view",
      "type": "function"
    },
    {
      "inputs": [
        {
          "internalType": "uint256",
          "name": "goal",
          "type": "uint256"
        },
        {
          "internalType": "uint256",
          "name": "durationInHours",
          "type": "uint256"
        },
        {
          "internalType": "string",
          "name": "socialLink",
          "type": "string"
        },
        {
          "internalType": "string",
          "name": "purpose",
          "type": "string"
        }
      ],
      "name": "createPool",
      "outputs": [],
      "stateMutability": "nonpayable",
      "type": "function"
    },
    {
      "inputs": [],
      "name": "getAllPools",
      "outputs": [
        {
          "internalType": "contract Pool[]",
          "name": "",
          "type": "address[]"
        }
      ],
      "stateMutability": "view",
      "type": "function"
    },
    {
      "inputs": [
        {
          "internalType": "address",
          "name": "owner",
          "type": "address"
        }
      ],
      "name": "getPoolsByOwner",
      "outputs": [
        {
          "internalType": "contract Pool[]",
          "name": "",
          "type": "address[]"
        }
      ],
      "stateMutability": "view",
      "type": "function"
    },
    {
      "inputs": [
        {
          "internalType": "uint256",
          "name": "",
          "type": "uint256"
        }
      ],
      "name": "pools",
      "outputs": [
        {
          "internalType": "contract Pool",
          "name": "",
          "type": "address"
        }
      ],
      "stateMutability": "view",
      "type": "function"
    },
    {
      "inputs": [
        {
          "internalType": "address",
          "name": "",
          "type": "address"
        },
        {
          "internalType": "uint256",
          "name": "",
          "type": "uint256"
        }
      ],
      "name": "poolsByOwner",
      "outputs": [
        {
          "internalType": "contract Pool",
          "name": "",
          "type": "address"
        }
      ],
      "stateMutability": "view",
      "type": "function"
    },
    {
      "inputs": [
        {
          "internalType": "address",
          "name": "_admin",
          "type": "address"
        }
      ],
      "name": "setAdmin",
      "outputs": [],
      "stateMutability": "nonpayable",
      "type": "function"
    }
  ],
  "bytecode": "0x6080604052348015600f57600080fd5b5033600260006101000a81548173ffffffffffffffffffffffffffffffffffffffff021916908373ffffffffffffffffffffffffffffffffffffffff160217905550612ca3806100606000396000f3fe608060405234801561001057600080fd5b506004361061007d5760003560e01c806377ef6eb91161005b57806377ef6eb9146100fe578063ac4afa381461011a578063d88ff1f41461014a578063f851a440146101685761007d565b80636a60813614610082578063704b6c02146100b2578063738b31df146100ce575b600080fd5b61009c60048036038101906100979190610782565b610186565b6040516100a991906108bd565b60405180910390f35b6100cc60048036038101906100c79190610782565b610253565b005b6100e860048036038101906100e39190610915565b610327565b6040516100f59190610964565b60405180910390f35b61011860048036038101906101139190610ac5565b610375565b005b610134600480360381019061012f9190610b64565b610610565b6040516101419190610964565b60405180910390f35b61015261064f565b60405161015f91906108bd565b60405180910390f35b6101706106dd565b60405161017d9190610ba0565b60405180910390f35b6060600160008373ffffffffffffffffffffffffffffffffffffffff1673ffffffffffffffffffffffffffffffffffffffff16815260200190815260200160002080548060200260200160405190810160405280929190818152602001828054801561024757602002820191906000526020600020905b8160009054906101000a900473ffffffffffffffffffffffffffffffffffffffff1673ffffffffffffffffffffffffffffffffffffffff16815260200190600101908083116101fd575b50505050509050919050565b600260009054906101000a900473ffffffffffffffffffffffffffffffffffffffff1673ffffffffffffffffffffffffffffffffffffffff163373ffffffffffffffffffffffffffffffffffffffff16146102e3576040517f08c379a00000000000000000000000000000000000000000000000000000000081526004016102da90610c18565b60405180910390fd5b80600260006101000a81548173ffffffffffffffffffffffffffffffffffffffff021916908373ffffffffffffffffffffffffffffffffffffffff16021790555050565b6001602052816000526040600020818154811061034357600080fd5b906000526020600020016000915091509054906101000a900473ffffffffffffffffffffffffffffffffffffffff1681565b600084116103b8576040517f08c379a00000000000000000000000000000000000000000000000000000000081526004016103af90610c84565b60405180910390fd5b600083116103fb576040517f08c379a00000000000000000000000000000000000000000000000000000000081526004016103f290610cf0565b60405180910390fd5b600033858585600260009054906101000a900473ffffffffffffffffffffffffffffffffffffffff168660405161043190610703565b61044096959493929190610d8d565b604051809103906000f08015801561045c573d6000803e3d6000fd5b5090506000819080600181540180825580915050600190039060005260206000200160009091909190916101000a81548173ffffffffffffffffffffffffffffffffffffffff021916908373ffffffffffffffffffffffffffffffffffffffff160217905550600160003373ffffffffffffffffffffffffffffffffffffffff1673ffffffffffffffffffffffffffffffffffffffff168152602001908152602001600020819080600181540180825580915050600190039060005260206000200160009091909190916101000a81548173ffffffffffffffffffffffffffffffffffffffff021916908373ffffffffffffffffffffffffffffffffffffffff1602179055503373ffffffffffffffffffffffffffffffffffffffff168173ffffffffffffffffffffffffffffffffffffffff167fcf64a44eef85fa3af7e67581c9fb8e96d24d8741c722126f9ac5f59e4778f95087610e10886105c09190610e2b565b426105cb9190610e6d565b87600260009054906101000a900473ffffffffffffffffffffffffffffffffffffffff1688604051610601959493929190610ea1565b60405180910390a35050505050565b6000818154811061062057600080fd5b906000526020600020016000915054906101000a900473ffffffffffffffffffffffffffffffffffffffff1681565b606060008054806020026020016040519081016040528092919081815260200182805480156106d357602002820191906000526020600020905b8160009054906101000a900473ffffffffffffffffffffffffffffffffffffffff1673ffffffffffffffffffffffffffffffffffffffff1681526020019060010190808311610689575b5050505050905090565b600260009054906101000a900473ffffffffffffffffffffffffffffffffffffffff1681565b611d6b80610f0383390190565b6000604051905090565b600080fd5b600080fd5b600073ffffffffffffffffffffffffffffffffffffffff82169050919050565b600061074f82610724565b9050919050565b61075f81610744565b811461076a57600080fd5b50565b60008135905061077c81610756565b92915050565b6000602082840312156107985761079761071a565b5b60006107a68482850161076d565b91505092915050565b600081519050919050565b600082825260208201905092915050565b6000819050602082019050919050565b6000819050919050565b60006108006107fb6107f684610724565b6107db565b610724565b9050919050565b6000610812826107e5565b9050919050565b600061082482610807565b9050919050565b61083481610819565b82525050565b6000610846838361082b565b60208301905092915050565b6000602082019050919050565b600061086a826107af565b61087481856107ba565b935061087f836107cb565b8060005b838110156108b0578151610897888261083a565b97506108a283610852565b925050600181019050610883565b5085935050505092915050565b600060208201905081810360008301526108d7818461085f565b905092915050565b6000819050919050565b6108f2816108df565b81146108fd57600080fd5b50565b60008135905061090f816108e9565b92915050565b6000806040838503121561092c5761092b61071a565b5b600061093a8582860161076d565b925050602061094b85828601610900565b9150509250929050565b61095e81610819565b82525050565b60006020820190506109796000830184610955565b92915050565b600080fd5b600080fd5b6000601f19601f8301169050919050565b7f4e487b7100000000000000000000000000000000000000000000000000000000600052604160045260246000fd5b6109d282610989565b810181811067ffffffffffffffff821117156109f1576109f061099a565b5b80604052505050565b6000610a04610710565b9050610a1082826109c9565b919050565b600067ffffffffffffffff821115610a3057610a2f61099a565b5b610a3982610989565b9050602081019050919050565b82818337600083830152505050565b6000610a68610a6384610a15565b6109fa565b905082815260208101848484011115610a8457610a83610984565b5b610a8f848285610a46565b509392505050565b600082601f830112610aac57610aab61097f565b5b8135610abc848260208601610a55565b91505092915050565b60008060008060808587031215610adf57610ade61071a565b5b6000610aed87828801610900565b9450506020610afe87828801610900565b935050604085013567ffffffffffffffff811115610b1f57610b1e61071f565b5b610b2b87828801610a97565b925050606085013567ffffffffffffffff811115610b4c57610b4b61071f565b5b610b5887828801610a97565b91505092959194509250565b600060208284031215610b7a57610b7961071a565b5b6000610b8884828501610900565b91505092915050565b610b9a81610744565b82525050565b6000602082019050610bb56000830184610b91565b92915050565b600082825260208201905092915050565b7f4e6f742061646d696e0000000000000000000000000000000000000000000000600082015250565b6000610c02600983610bbb565b9150610c0d82610bcc565b602082019050919050565b60006020820190508181036000830152610c3181610bf5565b9050919050565b7f476f616c206d757374206265203e203000000000000000000000000000000000600082015250565b6000610c6e601083610bbb565b9150610c7982610c38565b602082019050919050565b60006020820190508181036000830152610c9d81610c61565b9050919050565b7f4475726174696f6e206d757374206265203e2030000000000000000000000000600082015250565b6000610cda601483610bbb565b9150610ce582610ca4565b602082019050919050565b60006020820190508181036000830152610d0981610ccd565b9050919050565b610d19816108df565b82525050565b600081519050919050565b60005b83811015610d48578082015181840152602081019050610d2d565b60008484015250505050565b6000610d5f82610d1f565b610d698185610bbb565b9350610d79818560208601610d2a565b610d8281610989565b840191505092915050565b600060c082019050610da26000830189610b91565b610daf6020830188610d10565b610dbc6040830187610d10565b8181036060830152610dce8186610d54565b9050610ddd6080830185610b91565b81810360a0830152610def8184610d54565b9050979650505050505050565b7f4e487b7100000000000000000000000000000000000000000000000000000000600052601160045260246000fd5b6000610e36826108df565b9150610e41836108df565b9250828202610e4f816108df565b91508282048414831517610e6657610e65610dfc565b5b5092915050565b6000610e78826108df565b9150610e83836108df565b9250828201905080821115610e9b57610e9a610dfc565b5b92915050565b600060a082019050610eb66000830188610d10565b610ec36020830187610d10565b8181036040830152610ed58186610d54565b9050610ee46060830185610b91565b8181036080830152610ef68184610d54565b9050969550505050505056fe60806040526000600760006101000a81548160ff02191690831515021790555034801561002b57600080fd5b50604051611d6b380380611d6b833981810160405281019061004d9190610328565b856000806101000a81548173ffffffffffffffffffffffffffffffffffffffff021916908373ffffffffffffffffffffffffffffffffffffffff16021790555084600181905550610e10846100a2919061041c565b426100ad919061045e565b60028190555082600590816100c291906106a9565b5081600460006101000a81548173ffffffffffffffffffffffffffffffffffffffff021916908373ffffffffffffffffffffffffffffffffffffffff160217905550806006908161011391906106a9565b5050505050505061077b565b6000604051905090565b600080fd5b600080fd5b600073ffffffffffffffffffffffffffffffffffffffff82169050919050565b600061015e82610133565b9050919050565b61016e81610153565b811461017957600080fd5b50565b60008151905061018b81610165565b92915050565b6000819050919050565b6101a481610191565b81146101af57600080fd5b50565b6000815190506101c18161019b565b92915050565b600080fd5b600080fd5b6000601f19601f8301169050919050565b7f4e487b7100000000000000000000000000000000000000000000000000000000600052604160045260246000fd5b61021a826101d1565b810181811067ffffffffffffffff82111715610239576102386101e2565b5b80604052505050565b600061024c61011f565b90506102588282610211565b919050565b600067ffffffffffffffff821115610278576102776101e2565b5b610281826101d1565b9050602081019050919050565b60005b838110156102ac578082015181840152602081019050610291565b60008484015250505050565b60006102cb6102c68461025d565b610242565b9050828152602081018484840111156102e7576102e66101cc565b5b6102f284828561028e565b509392505050565b600082601f83011261030f5761030e6101c7565b5b815161031f8482602086016102b8565b91505092915050565b60008060008060008060c0878903121561034557610344610129565b5b600061035389828a0161017c565b965050602061036489828a016101b2565b955050604061037589828a016101b2565b945050606087015167ffffffffffffffff8111156103965761039561012e565b5b6103a289828a016102fa565b93505060806103b389828a0161017c565b92505060a087015167ffffffffffffffff8111156103d4576103d361012e565b5b6103e089828a016102fa565b9150509295509295509295565b7f4e487b7100000000000000000000000000000000000000000000000000000000600052601160045260246000fd5b600061042782610191565b915061043283610191565b925082820261044081610191565b91508282048414831517610457576104566103ed565b5b5092915050565b600061046982610191565b915061047483610191565b925082820190508082111561048c5761048b6103ed565b5b92915050565b600081519050919050565b7f4e487b7100000000000000000000000000000000000000000000000000000000600052602260045260246000fd5b600060028204905060018216806104e457607f821691505b6020821081036104f7576104f661049d565b5b50919050565b60008190508160005260206000209050919050565b60006020601f8301049050919050565b600082821b905092915050565b60006008830261055f7fffffffffffffffffffffffffffffffffffffffffffffffffffffffffffffffff82610522565b6105698683610522565b95508019841693508086168417925050509392505050565b6000819050919050565b60006105a66105a161059c84610191565b610581565b610191565b9050919050565b6000819050919050565b6105c08361058b565b6105d46105cc826105ad565b84845461052f565b825550505050565b600090565b6105e96105dc565b6105f48184846105b7565b505050565b5b818110156106185761060d6000826105e1565b6001810190506105fa565b5050565b601f82111561065d5761062e816104fd565b61063784610512565b81016020851015610646578190505b61065a61065285610512565b8301826105f9565b50505b505050565b600082821c905092915050565b600061068060001984600802610662565b1980831691505092915050565b6000610699838361066f565b9150826002028217905092915050565b6106b282610492565b67ffffffffffffffff8111156106cb576106ca6101e2565b5b6106d582546104cc565b6106e082828561061c565b600060209050601f8311600181146107135760008415610701578287015190505b61070b858261068d565b865550610773565b601f198416610721866104fd565b60005b8281101561074957848901518255600182019150602085019450602081019050610724565b868310156107665784890151610762601f89168261066f565b8355505b6001600288020188555050505b505050505050565b6115e18061078a6000396000f3fe6080604052600436106100ec5760003560e01c806360246c881161008a5780638da5cb5b116100595780638da5cb5b14610325578063d7bb99ba14610350578063f18d20be1461035a578063f851a4401461037157610161565b806360246c881461027b5780636c15c919146102a657806372b0d90c146102d15780637b352962146102fa57610161565b80633ccfd60b116100c65780633ccfd60b146101e557806340193883146101fc57806342e94c9014610227578063590e1ae31461026457610161565b8063023f4147146101665780630fc9fc291461019157806329dcb0cf146101ba57610161565b366101615734600360008282546101039190610e8a565b9250508190555034600860003373ffffffffffffffffffffffffffffffffffffffff1673ffffffffffffffffffffffffffffffffffffffff16815260200190815260200160002060008282546101599190610e8a565b925050819055005b600080fd5b34801561017257600080fd5b5061017b61039c565b6040516101889190610ecd565b60405180910390f35b34801561019d57600080fd5b506101b860048036038101906101b39190610f4b565b6103a2565b005b3480156101c657600080fd5b506101cf61047c565b6040516101dc9190610ecd565b60405180910390f35b3480156101f157600080fd5b506101fa610482565b005b34801561020857600080fd5b5061021161067a565b60405161021e9190610ecd565b60405180910390f35b34801561023357600080fd5b5061024e60048036038101906102499190610f4b565b610680565b60405161025b9190610ecd565b60405180910390f35b34801561027057600080fd5b50610279610698565b005b34801561028757600080fd5b50610290610839565b60405161029d91906110b6565b60405180910390f35b3480156102b257600080fd5b506102bb6109c3565b6040516102c891906110f3565b60405180910390f35b3480156102dd57600080fd5b506102f860048036038101906102f39190610f4b565b6109da565b005b34801561030657600080fd5b5061030f610bb5565b60405161031c91906110f3565b60405180910390f35b34801561033157600080fd5b5061033a610bc8565b604051610347919061111d565b60405180910390f35b610358610bec565b005b34801561036657600080fd5b5061036f610ce4565b005b34801561037d57600080fd5b50610386610ddf565b604051610393919061111d565b60405180910390f35b60035481565b600460009054906101000a900473ffffffffffffffffffffffffffffffffffffffff1673ffffffffffffffffffffffffffffffffffffffff163373ffffffffffffffffffffffffffffffffffffffff1614610432576040517f08c379a000000000000000000000000000000000000000000000000000000000815260040161042990611195565b60405180910390fd5b8073ffffffffffffffffffffffffffffffffffffffff166108fc479081150290604051600060405180830381858888f19350505050158015610478573d6000803e3d6000fd5b5050565b60025481565b60008054906101000a900473ffffffffffffffffffffffffffffffffffffffff1673ffffffffffffffffffffffffffffffffffffffff163373ffffffffffffffffffffffffffffffffffffffff1614610510576040517f08c379a000000000000000000000000000000000000000000000000000000000815260040161050790611201565b60405180910390fd5b6001546003541015610557576040517f08c379a000000000000000000000000000000000000000000000000000000000815260040161054e9061126d565b60405180910390fd5b600047905060008054906101000a900473ffffffffffffffffffffffffffffffffffffffff1673ffffffffffffffffffffffffffffffffffffffff166108fc60146064846105a591906112bc565b6105af91906112ed565b9081150290604051600060405180830381858888f193505050501580156105da573d6000803e3d6000fd5b50600460009054906101000a900473ffffffffffffffffffffffffffffffffffffffff1673ffffffffffffffffffffffffffffffffffffffff166108fc605060648461062691906112bc565b61063091906112ed565b9081150290604051600060405180830381858888f1935050505015801561065b573d6000803e3d6000fd5b506001600760006101000a81548160ff02191690831515021790555050565b60015481565b60086020528060005260406000206000915090505481565b6002544210156106dd576040517f08c379a00000000000000000000000000000000000000000000000000000000081526004016106d49061137b565b60405180910390fd5b60015460035410610723576040517f08c379a000000000000000000000000000000000000000000000000000000000815260040161071a906113e7565b60405180910390fd5b6000600860003373ffffffffffffffffffffffffffffffffffffffff1673ffffffffffffffffffffffffffffffffffffffff168152602001908152602001600020549050600081116107aa576040517f08c379a00000000000000000000000000000000000000000000000000000000081526004016107a190611453565b60405180910390fd5b6000600860003373ffffffffffffffffffffffffffffffffffffffff1673ffffffffffffffffffffffffffffffffffffffff168152602001908152602001600020819055503373ffffffffffffffffffffffffffffffffffffffff166108fc829081150290604051600060405180830381858888f19350505050158015610835573d6000803e3d6000fd5b5050565b610841610e05565b6040518060c0016040528060008054906101000a900473ffffffffffffffffffffffffffffffffffffffff1673ffffffffffffffffffffffffffffffffffffffff168152602001600154815260200160025481526020016003548152602001600580546108ad906114a2565b80601f01602080910402602001604051908101604052809291908181526020018280546108d9906114a2565b80156109265780601f106108fb57610100808354040283529160200191610926565b820191906000526020600020905b81548152906001019060200180831161090957829003601f168201915b505050505081526020016006805461093d906114a2565b80601f0160208091040260200160405190810160405280929190818152602001828054610969906114a2565b80156109b65780601f1061098b576101008083540402835291602001916109b6565b820191906000526020600020905b81548152906001019060200180831161099957829003601f168201915b5050505050815250905090565b6000600760009054906101000a900460ff16905090565b600460009054906101000a900473ffffffffffffffffffffffffffffffffffffffff1673ffffffffffffffffffffffffffffffffffffffff163373ffffffffffffffffffffffffffffffffffffffff1614610a6a576040517f08c379a0000000000000000000000000000000000000000000000000000000008152600401610a6190611201565b60405180910390fd5b6001546003541015610ab1576040517f08c379a0000000000000000000000000000000000000000000000000000000008152600401610aa89061126d565b60405180910390fd5b60004790508173ffffffffffffffffffffffffffffffffffffffff166108fc6014606484610adf91906112bc565b610ae991906112ed565b9081150290604051600060405180830381858888f19350505050158015610b14573d6000803e3d6000fd5b50600460009054906101000a900473ffffffffffffffffffffffffffffffffffffffff1673ffffffffffffffffffffffffffffffffffffffff166108fc6050606484610b6091906112bc565b610b6a91906112ed565b9081150290604051600060405180830381858888f19350505050158015610b95573d6000803e3d6000fd5b506001600760006101000a81548160ff0219169083151502179055505050565b600760009054906101000a900460ff1681565b60008054906101000a900473ffffffffffffffffffffffffffffffffffffffff1681565b6002544210610c30576040517f08c379a0000000000000000000000000000000000000000000000000000000008152600401610c279061151f565b60405180910390fd5b60003411610c73576040517f08c379a0000000000000000000000000000000000000000000000000000000008152600401610c6a9061158b565b60405180910390fd5b34600860003373ffffffffffffffffffffffffffffffffffffffff1673ffffffffffffffffffffffffffffffffffffffff1681526020019081526020016000206000828254610cc29190610e8a565b925050819055503460036000828254610cdb9190610e8a565b92505081905550565b600460009054906101000a900473ffffffffffffffffffffffffffffffffffffffff1673ffffffffffffffffffffffffffffffffffffffff163373ffffffffffffffffffffffffffffffffffffffff1614610d74576040517f08c379a0000000000000000000000000000000000000000000000000000000008152600401610d6b90611195565b60405180910390fd5b600460009054906101000a900473ffffffffffffffffffffffffffffffffffffffff1673ffffffffffffffffffffffffffffffffffffffff166108fc479081150290604051600060405180830381858888f19350505050158015610ddc573d6000803e3d6000fd5b50565b600460009054906101000a900473ffffffffffffffffffffffffffffffffffffffff1681565b6040518060c00160405280600073ffffffffffffffffffffffffffffffffffffffff16815260200160008152602001600081526020016000815260200160608152602001606081525090565b6000819050919050565b7f4e487b7100000000000000000000000000000000000000000000000000000000600052601160045260246000fd5b6000610e9582610e51565b9150610ea083610e51565b9250828201905080821115610eb857610eb7610e5b565b5b92915050565b610ec781610e51565b82525050565b6000602082019050610ee26000830184610ebe565b92915050565b600080fd5b600073ffffffffffffffffffffffffffffffffffffffff82169050919050565b6000610f1882610eed565b9050919050565b610f2881610f0d565b8114610f3357600080fd5b50565b600081359050610f4581610f1f565b92915050565b600060208284031215610f6157610f60610ee8565b5b6000610f6f84828501610f36565b91505092915050565b610f8181610f0d565b82525050565b610f9081610e51565b82525050565b600081519050919050565b600082825260208201905092915050565b60005b83811015610fd0578082015181840152602081019050610fb5565b60008484015250505050565b6000601f19601f8301169050919050565b6000610ff882610f96565b6110028185610fa1565b9350611012818560208601610fb2565b61101b81610fdc565b840191505092915050565b600060c08301600083015161103e6000860182610f78565b5060208301516110516020860182610f87565b5060408301516110646040860182610f87565b5060608301516110776060860182610f87565b506080830151848203608086015261108f8282610fed565b91505060a083015184820360a08601526110a98282610fed565b9150508091505092915050565b600060208201905081810360008301526110d08184611026565b905092915050565b60008115159050919050565b6110ed816110d8565b82525050565b600060208201905061110860008301846110e4565b92915050565b61111781610f0d565b82525050565b6000602082019050611132600083018461110e565b92915050565b600082825260208201905092915050565b7f4e6f742061646d696e0000000000000000000000000000000000000000000000600082015250565b600061117f600983611138565b915061118a82611149565b602082019050919050565b600060208201905081810360008301526111ae81611172565b9050919050565b7f4e6f74206f776e65720000000000000000000000000000000000000000000000600082015250565b60006111eb600983611138565b91506111f6826111b5565b602082019050919050565b6000602082019050818103600083015261121a816111de565b9050919050565b7f476f616c206e6f74206d65740000000000000000000000000000000000000000600082015250565b6000611257600c83611138565b915061126282611221565b602082019050919050565b600060208201905081810360008301526112868161124a565b9050919050565b7f4e487b7100000000000000000000000000000000000000000000000000000000600052601260045260246000fd5b60006112c782610e51565b91506112d283610e51565b9250826112e2576112e161128d565b5b828204905092915050565b60006112f882610e51565b915061130383610e51565b925082820261131181610e51565b9150828204841483151761132857611327610e5b565b5b5092915050565b7f446561646c696e65206e6f742072656163686564000000000000000000000000600082015250565b6000611365601483611138565b91506113708261132f565b602082019050919050565b6000602082019050818103600083015261139481611358565b9050919050565b7f476f616c20776173206d65740000000000000000000000000000000000000000600082015250565b60006113d1600c83611138565b91506113dc8261139b565b602082019050919050565b60006020820190508181036000830152611400816113c4565b9050919050565b7f4e6f20636f6e747269627574696f6e7300000000000000000000000000000000600082015250565b600061143d601083611138565b915061144882611407565b602082019050919050565b6000602082019050818103600083015261146c81611430565b9050919050565b7f4e487b7100000000000000000000000000000000000000000000000000000000600052602260045260246000fd5b600060028204905060018216806114ba57607f821691505b6020821081036114cd576114cc611473565b5b50919050565b7f446561646c696e65207061737365640000000000000000000000000000000000600082015250565b6000611509600f83611138565b9150611514826114d3565b602082019050919050565b60006020820190508181036000830152611538816114fc565b9050919050565b7f436f6e747269627574696f6e206d757374206265203e20300000000000000000600082015250565b6000611575601883611138565b91506115808261153f565b602082019050919050565b600060208201905081810360008301526115a481611568565b905091905056fea2646970667358221220ecc654292b978c2a9373f1504d9153b63b21cad3f2682a187e7460c2595bfac764736f6c634300081c0033a2646970667358221220034fab341346479ccac1ed7227cd732188ca120ee442d8f360947d51fe92908e64736f6c634300081c0033",
  "linkReferences": {},
  "deployedLinkReferences": {}
}