{
  "_format": "hh-sol-artifact-1",
  "contractName": "Pool",
  "sourceName": "contracts/Pool.sol",
  "abi": [
    {
      "inputs": [
        {
          "internalType": "address",
          "name": "_owner",
          "type": "address"
        },
        {
          "internalType": "uint256",
          "name": "_goal",
          "type": "uint256"
        },
        {
          "internalType": "uint256",
          "name": "_durationInHours",
          "type": "uint256"
        },
        {
          "internalType": "string",
          "name": "_socialLink",
          "type": "string"
        },
        {
          "internalType": "address",
          "name": "_admin",
          "type": "address"
        }
      ],
      "stateMutability": "nonpayable",
      "type": "constructor"
    },
    {
      "inputs": [],
      "name": "admin",
      "outputs": [
        {
          "internalType": "address",
          "name": "",
          "type": "address"
        }
      ],
      "stateMutability": "view",
      "type": "function"
    },
    {
      "inputs": [],
      "name": "adminWithdraw",
      "outputs": [],
      "stateMutability": "nonpayable",
      "type": "function"
    },
    {
      "inputs": [
        {
          "internalType": "address",
          "name": "to",
          "type": "address"
        }
      ],
      "name": "adminWithdrawTo",
      "outputs": [],
      "stateMutability": "nonpayable",
      "type": "function"
    },
    {
      "inputs": [],
      "name": "contribute",
      "outputs": [],
      "stateMutability": "payable",
      "type": "function"
    },
    {
      "inputs": [
        {
          "internalType": "address",
          "name": "",
          "type": "address"
        }
      ],
      "name": "contributions",
      "outputs": [
        {
          "internalType": "uint256",
          "name": "",
          "type": "uint256"
        }
      ],
      "stateMutability": "view",
      "type": "function"
    },
    {
      "inputs": [],
      "name": "deadline",
      "outputs": [
        {
          "internalType": "uint256",
          "name": "",
          "type": "uint256"
        }
      ],
      "stateMutability": "view",
      "type": "function"
    },
    {
      "inputs": [],
      "name": "getIsFinished",
      "outputs": [
        {
          "internalType": "bool",
          "name": "",
          "type": "bool"
        }
      ],
      "stateMutability": "view",
      "type": "function"
    },
    {
      "inputs": [],
      "name": "getPoolInfo",
      "outputs": [
        {
          "components": [
            {
              "internalType": "address",
              "name": "owner",
              "type": "address"
            },
            {
              "internalType": "uint256",
              "name": "goal",
              "type": "uint256"
            },
            {
              "internalType": "uint256",
              "name": "deadline",
              "type": "uint256"
            },
            {
              "internalType": "uint256",
              "name": "totalContributed",
              "type": "uint256"
            },
            {
              "internalType": "string",
              "name": "socialLink",
              "type": "string"
            }
          ],
          "internalType": "struct Pool.PoolInfo",
          "name": "",
          "type": "tuple"
        }
      ],
      "stateMutability": "view",
      "type": "function"
    },
    {
      "inputs": [],
      "name": "goal",
      "outputs": [
        {
          "internalType": "uint256",
          "name": "",
          "type": "uint256"
        }
      ],
      "stateMutability": "view",
      "type": "function"
    },
    {
      "inputs": [],
      "name": "isFinished",
      "outputs": [
        {
          "internalType": "bool",
          "name": "",
          "type": "bool"
        }
      ],
      "stateMutability": "view",
      "type": "function"
    },
    {
      "inputs": [],
      "name": "owner",
      "outputs": [
        {
          "internalType": "address",
          "name": "",
          "type": "address"
        }
      ],
      "stateMutability": "view",
      "type": "function"
    },
    {
      "inputs": [],
      "name": "refund",
      "outputs": [],
      "stateMutability": "nonpayable",
      "type": "function"
    },
    {
      "inputs": [],
      "name": "totalContributed",
      "outputs": [
        {
          "internalType": "uint256",
          "name": "",
          "type": "uint256"
        }
      ],
      "stateMutability": "view",
      "type": "function"
    },
    {
      "inputs": [],
      "name": "withdraw",
      "outputs": [],
      "stateMutability": "nonpayable",
      "type": "function"
    },
    {
      "inputs": [
        {
          "internalType": "address",
          "name": "to",
          "type": "address"
        }
      ],
      "name": "withdrawTo",
      "outputs": [],
      "stateMutability": "nonpayable",
      "type": "function"
    },
    {
      "stateMutability": "payable",
      "type": "receive"
    }
  ],
  "bytecode": "0x60806040526000600660006101000a81548160ff02191690831515021790555034801561002b57600080fd5b50604051611c7b380380611c7b833981810160405281019061004d9190610317565b846000806101000a81548173ffffffffffffffffffffffffffffffffffffffff021916908373ffffffffffffffffffffffffffffffffffffffff16021790555083600181905550610e10836100a291906103dd565b426100ad919061041f565b60028190555081600590816100c2919061066a565b5080600460006101000a81548173ffffffffffffffffffffffffffffffffffffffff021916908373ffffffffffffffffffffffffffffffffffffffff160217905550505050505061073c565b6000604051905090565b600080fd5b600080fd5b600073ffffffffffffffffffffffffffffffffffffffff82169050919050565b600061014d82610122565b9050919050565b61015d81610142565b811461016857600080fd5b50565b60008151905061017a81610154565b92915050565b6000819050919050565b61019381610180565b811461019e57600080fd5b50565b6000815190506101b08161018a565b92915050565b600080fd5b600080fd5b6000601f19601f8301169050919050565b7f4e487b7100000000000000000000000000000000000000000000000000000000600052604160045260246000fd5b610209826101c0565b810181811067ffffffffffffffff82111715610228576102276101d1565b5b80604052505050565b600061023b61010e565b90506102478282610200565b919050565b600067ffffffffffffffff821115610267576102666101d1565b5b610270826101c0565b9050602081019050919050565b60005b8381101561029b578082015181840152602081019050610280565b60008484015250505050565b60006102ba6102b58461024c565b610231565b9050828152602081018484840111156102d6576102d56101bb565b5b6102e184828561027d565b509392505050565b600082601f8301126102fe576102fd6101b6565b5b815161030e8482602086016102a7565b91505092915050565b600080600080600060a0868803121561033357610332610118565b5b60006103418882890161016b565b9550506020610352888289016101a1565b9450506040610363888289016101a1565b935050606086015167ffffffffffffffff8111156103845761038361011d565b5b610390888289016102e9565b92505060806103a18882890161016b565b9150509295509295909350565b7f4e487b7100000000000000000000000000000000000000000000000000000000600052601160045260246000fd5b60006103e882610180565b91506103f383610180565b925082820261040181610180565b91508282048414831517610418576104176103ae565b5b5092915050565b600061042a82610180565b915061043583610180565b925082820190508082111561044d5761044c6103ae565b5b92915050565b600081519050919050565b7f4e487b7100000000000000000000000000000000000000000000000000000000600052602260045260246000fd5b600060028204905060018216806104a557607f821691505b6020821081036104b8576104b761045e565b5b50919050565b60008190508160005260206000209050919050565b60006020601f8301049050919050565b600082821b905092915050565b6000600883026105207fffffffffffffffffffffffffffffffffffffffffffffffffffffffffffffffff826104e3565b61052a86836104e3565b95508019841693508086168417925050509392505050565b6000819050919050565b600061056761056261055d84610180565b610542565b610180565b9050919050565b6000819050919050565b6105818361054c565b61059561058d8261056e565b8484546104f0565b825550505050565b600090565b6105aa61059d565b6105b5818484610578565b505050565b5b818110156105d9576105ce6000826105a2565b6001810190506105bb565b5050565b601f82111561061e576105ef816104be565b6105f8846104d3565b81016020851015610607578190505b61061b610613856104d3565b8301826105ba565b50505b505050565b600082821c905092915050565b600061064160001984600802610623565b1980831691505092915050565b600061065a8383610630565b9150826002028217905092915050565b61067382610453565b67ffffffffffffffff81111561068c5761068b6101d1565b5b610696825461048d565b6106a18282856105dd565b600060209050601f8311600181146106d457600084156106c2578287015190505b6106cc858261064e565b865550610734565b601f1984166106e2866104be565b60005b8281101561070a578489015182556001820191506020850194506020810190506106e5565b868310156107275784890151610723601f891682610630565b8355505b6001600288020188555050505b505050505050565b6115308061074b6000396000f3fe6080604052600436106100ec5760003560e01c806360246c881161008a5780638da5cb5b116100595780638da5cb5b14610325578063d7bb99ba14610350578063f18d20be1461035a578063f851a4401461037157610161565b806360246c881461027b5780636c15c919146102a657806372b0d90c146102d15780637b352962146102fa57610161565b80633ccfd60b116100c65780633ccfd60b146101e557806340193883146101fc57806342e94c9014610227578063590e1ae31461026457610161565b8063023f4147146101665780630fc9fc291461019157806329dcb0cf146101ba57610161565b366101615734600360008282546101039190610df3565b9250508190555034600760003373ffffffffffffffffffffffffffffffffffffffff1673ffffffffffffffffffffffffffffffffffffffff16815260200190815260200160002060008282546101599190610df3565b925050819055005b600080fd5b34801561017257600080fd5b5061017b61039c565b6040516101889190610e36565b60405180910390f35b34801561019d57600080fd5b506101b860048036038101906101b39190610eb4565b6103a2565b005b3480156101c657600080fd5b506101cf61047c565b6040516101dc9190610e36565b60405180910390f35b3480156101f157600080fd5b506101fa610482565b005b34801561020857600080fd5b5061021161067a565b60405161021e9190610e36565b60405180910390f35b34801561023357600080fd5b5061024e60048036038101906102499190610eb4565b610680565b60405161025b9190610e36565b60405180910390f35b34801561027057600080fd5b50610279610698565b005b34801561028757600080fd5b50610290610839565b60405161029d9190611005565b60405180910390f35b3480156102b257600080fd5b506102bb610933565b6040516102c89190611042565b60405180910390f35b3480156102dd57600080fd5b506102f860048036038101906102f39190610eb4565b61094a565b005b34801561030657600080fd5b5061030f610b25565b60405161031c9190611042565b60405180910390f35b34801561033157600080fd5b5061033a610b38565b604051610347919061106c565b60405180910390f35b610358610b5c565b005b34801561036657600080fd5b5061036f610c54565b005b34801561037d57600080fd5b50610386610d4f565b604051610393919061106c565b60405180910390f35b60035481565b600460009054906101000a900473ffffffffffffffffffffffffffffffffffffffff1673ffffffffffffffffffffffffffffffffffffffff163373ffffffffffffffffffffffffffffffffffffffff1614610432576040517f08c379a0000000000000000000000000000000000000000000000000000000008152600401610429906110e4565b60405180910390fd5b8073ffffffffffffffffffffffffffffffffffffffff166108fc479081150290604051600060405180830381858888f19350505050158015610478573d6000803e3d6000fd5b5050565b60025481565b60008054906101000a900473ffffffffffffffffffffffffffffffffffffffff1673ffffffffffffffffffffffffffffffffffffffff163373ffffffffffffffffffffffffffffffffffffffff1614610510576040517f08c379a000000000000000000000000000000000000000000000000000000000815260040161050790611150565b60405180910390fd5b6001546003541015610557576040517f08c379a000000000000000000000000000000000000000000000000000000000815260040161054e906111bc565b60405180910390fd5b600047905060008054906101000a900473ffffffffffffffffffffffffffffffffffffffff1673ffffffffffffffffffffffffffffffffffffffff166108fc60146064846105a5919061120b565b6105af919061123c565b9081150290604051600060405180830381858888f193505050501580156105da573d6000803e3d6000fd5b50600460009054906101000a900473ffffffffffffffffffffffffffffffffffffffff1673ffffffffffffffffffffffffffffffffffffffff166108fc6050606484610626919061120b565b610630919061123c565b9081150290604051600060405180830381858888f1935050505015801561065b573d6000803e3d6000fd5b506001600660006101000a81548160ff02191690831515021790555050565b60015481565b60076020528060005260406000206000915090505481565b6002544210156106dd576040517f08c379a00000000000000000000000000000000000000000000000000000000081526004016106d4906112ca565b60405180910390fd5b60015460035410610723576040517f08c379a000000000000000000000000000000000000000000000000000000000815260040161071a90611336565b60405180910390fd5b6000600760003373ffffffffffffffffffffffffffffffffffffffff1673ffffffffffffffffffffffffffffffffffffffff168152602001908152602001600020549050600081116107aa576040517f08c379a00000000000000000000000000000000000000000000000000000000081526004016107a1906113a2565b60405180910390fd5b6000600760003373ffffffffffffffffffffffffffffffffffffffff1673ffffffffffffffffffffffffffffffffffffffff168152602001908152602001600020819055503373ffffffffffffffffffffffffffffffffffffffff166108fc829081150290604051600060405180830381858888f19350505050158015610835573d6000803e3d6000fd5b5050565b610841610d75565b6040518060a0016040528060008054906101000a900473ffffffffffffffffffffffffffffffffffffffff1673ffffffffffffffffffffffffffffffffffffffff168152602001600154815260200160025481526020016003548152602001600580546108ad906113f1565b80601f01602080910402602001604051908101604052809291908181526020018280546108d9906113f1565b80156109265780601f106108fb57610100808354040283529160200191610926565b820191906000526020600020905b81548152906001019060200180831161090957829003601f168201915b5050505050815250905090565b6000600660009054906101000a900460ff16905090565b600460009054906101000a900473ffffffffffffffffffffffffffffffffffffffff1673ffffffffffffffffffffffffffffffffffffffff163373ffffffffffffffffffffffffffffffffffffffff16146109da576040517f08c379a00000000000000000000000000000000000000000000000000000000081526004016109d190611150565b60405180910390fd5b6001546003541015610a21576040517f08c379a0000000000000000000000000000000000000000000000000000000008152600401610a18906111bc565b60405180910390fd5b60004790508173ffffffffffffffffffffffffffffffffffffffff166108fc6014606484610a4f919061120b565b610a59919061123c565b9081150290604051600060405180830381858888f19350505050158015610a84573d6000803e3d6000fd5b50600460009054906101000a900473ffffffffffffffffffffffffffffffffffffffff1673ffffffffffffffffffffffffffffffffffffffff166108fc6050606484610ad0919061120b565b610ada919061123c565b9081150290604051600060405180830381858888f19350505050158015610b05573d6000803e3d6000fd5b506001600660006101000a81548160ff0219169083151502179055505050565b600660009054906101000a900460ff1681565b60008054906101000a900473ffffffffffffffffffffffffffffffffffffffff1681565b6002544210610ba0576040517f08c379a0000000000000000000000000000000000000000000000000000000008152600401610b979061146e565b60405180910390fd5b60003411610be3576040517f08c379a0000000000000000000000000000000000000000000000000000000008152600401610bda906114da565b60405180910390fd5b34600760003373ffffffffffffffffffffffffffffffffffffffff1673ffffffffffffffffffffffffffffffffffffffff1681526020019081526020016000206000828254610c329190610df3565b925050819055503460036000828254610c4b9190610df3565b92505081905550565b600460009054906101000a900473ffffffffffffffffffffffffffffffffffffffff1673ffffffffffffffffffffffffffffffffffffffff163373ffffffffffffffffffffffffffffffffffffffff1614610ce4576040517f08c379a0000000000000000000000000000000000000000000000000000000008152600401610cdb906110e4565b60405180910390fd5b600460009054906101000a900473ffffffffffffffffffffffffffffffffffffffff1673ffffffffffffffffffffffffffffffffffffffff166108fc479081150290604051600060405180830381858888f19350505050158015610d4c573d6000803e3d6000fd5b50565b600460009054906101000a900473ffffffffffffffffffffffffffffffffffffffff1681565b6040518060a00160405280600073ffffffffffffffffffffffffffffffffffffffff168152602001600081526020016000815260200160008152602001606081525090565b6000819050919050565b7f4e487b7100000000000000000000000000000000000000000000000000000000600052601160045260246000fd5b6000610dfe82610dba565b9150610e0983610dba565b9250828201905080821115610e2157610e20610dc4565b5b92915050565b610e3081610dba565b82525050565b6000602082019050610e4b6000830184610e27565b92915050565b600080fd5b600073ffffffffffffffffffffffffffffffffffffffff82169050919050565b6000610e8182610e56565b9050919050565b610e9181610e76565b8114610e9c57600080fd5b50565b600081359050610eae81610e88565b92915050565b600060208284031215610eca57610ec9610e51565b5b6000610ed884828501610e9f565b91505092915050565b610eea81610e76565b82525050565b610ef981610dba565b82525050565b600081519050919050565b600082825260208201905092915050565b60005b83811015610f39578082015181840152602081019050610f1e565b60008484015250505050565b6000601f19601f8301169050919050565b6000610f6182610eff565b610f6b8185610f0a565b9350610f7b818560208601610f1b565b610f8481610f45565b840191505092915050565b600060a083016000830151610fa76000860182610ee1565b506020830151610fba6020860182610ef0565b506040830151610fcd6040860182610ef0565b506060830151610fe06060860182610ef0565b5060808301518482036080860152610ff88282610f56565b9150508091505092915050565b6000602082019050818103600083015261101f8184610f8f565b905092915050565b60008115159050919050565b61103c81611027565b82525050565b60006020820190506110576000830184611033565b92915050565b61106681610e76565b82525050565b6000602082019050611081600083018461105d565b92915050565b600082825260208201905092915050565b7f4e6f742061646d696e0000000000000000000000000000000000000000000000600082015250565b60006110ce600983611087565b91506110d982611098565b602082019050919050565b600060208201905081810360008301526110fd816110c1565b9050919050565b7f4e6f74206f776e65720000000000000000000000000000000000000000000000600082015250565b600061113a600983611087565b915061114582611104565b602082019050919050565b600060208201905081810360008301526111698161112d565b9050919050565b7f476f616c206e6f74206d65740000000000000000000000000000000000000000600082015250565b60006111a6600c83611087565b91506111b182611170565b602082019050919050565b600060208201905081810360008301526111d581611199565b9050919050565b7f4e487b7100000000000000000000000000000000000000000000000000000000600052601260045260246000fd5b600061121682610dba565b915061122183610dba565b925082611231576112306111dc565b5b828204905092915050565b600061124782610dba565b915061125283610dba565b925082820261126081610dba565b9150828204841483151761127757611276610dc4565b5b5092915050565b7f446561646c696e65206e6f742072656163686564000000000000000000000000600082015250565b60006112b4601483611087565b91506112bf8261127e565b602082019050919050565b600060208201905081810360008301526112e3816112a7565b9050919050565b7f476f616c20776173206d65740000000000000000000000000000000000000000600082015250565b6000611320600c83611087565b915061132b826112ea565b602082019050919050565b6000602082019050818103600083015261134f81611313565b9050919050565b7f4e6f20636f6e747269627574696f6e7300000000000000000000000000000000600082015250565b600061138c601083611087565b915061139782611356565b602082019050919050565b600060208201905081810360008301526113bb8161137f565b9050919050565b7f4e487b7100000000000000000000000000000000000000000000000000000000600052602260045260246000fd5b6000600282049050600182168061140957607f821691505b60208210810361141c5761141b6113c2565b5b50919050565b7f446561646c696e65207061737365640000000000000000000000000000000000600082015250565b6000611458600f83611087565b915061146382611422565b602082019050919050565b600060208201905081810360008301526114878161144b565b9050919050565b7f436f6e747269627574696f6e206d757374206265203e20300000000000000000600082015250565b60006114c4601883611087565b91506114cf8261148e565b602082019050919050565b600060208201905081810360008301526114f3816114b7565b905091905056fea2646970667358221220176b3e9e71374e09a8e76117ab3b47413ed2da7a159e8fde60fe5d4018b6677a64736f6c634300081c0033",
  "linkReferences": {},
  "deployedLinkReferences": {}
}