{
  "_format": "hh-sol-artifact-1",
  "contractName": "Pool",
  "sourceName": "contracts/Pool.sol",
  "abi": [
    {
      "inputs": [
        {
          "internalType": "address",
          "name": "_owner",
          "type": "address"
        },
        {
          "internalType": "uint256",
          "name": "_goal",
          "type": "uint256"
        },
        {
          "internalType": "uint256",
          "name": "_durationInHours",
          "type": "uint256"
        },
        {
          "internalType": "string",
          "name": "_socialLink",
          "type": "string"
        },
        {
          "internalType": "address",
          "name": "_admin",
          "type": "address"
        }
      ],
      "stateMutability": "nonpayable",
      "type": "constructor"
    },
    {
      "inputs": [],
      "name": "admin",
      "outputs": [
        {
          "internalType": "address",
          "name": "",
          "type": "address"
        }
      ],
      "stateMutability": "view",
      "type": "function"
    },
    {
      "inputs": [],
      "name": "adminWithdraw",
      "outputs": [],
      "stateMutability": "nonpayable",
      "type": "function"
    },
    {
      "inputs": [
        {
          "internalType": "address",
          "name": "to",
          "type": "address"
        }
      ],
      "name": "adminWithdrawTo",
      "outputs": [],
      "stateMutability": "nonpayable",
      "type": "function"
    },
    {
      "inputs": [],
      "name": "contribute",
      "outputs": [],
      "stateMutability": "payable",
      "type": "function"
    },
    {
      "inputs": [
        {
          "internalType": "address",
          "name": "",
          "type": "address"
        }
      ],
      "name": "contributions",
      "outputs": [
        {
          "internalType": "uint256",
          "name": "",
          "type": "uint256"
        }
      ],
      "stateMutability": "view",
      "type": "function"
    },
    {
      "inputs": [],
      "name": "deadline",
      "outputs": [
        {
          "internalType": "uint256",
          "name": "",
          "type": "uint256"
        }
      ],
      "stateMutability": "view",
      "type": "function"
    },
    {
      "inputs": [],
      "name": "getPoolInfo",
      "outputs": [
        {
          "components": [
            {
              "internalType": "address",
              "name": "owner",
              "type": "address"
            },
            {
              "internalType": "uint256",
              "name": "goal",
              "type": "uint256"
            },
            {
              "internalType": "uint256",
              "name": "deadline",
              "type": "uint256"
            },
            {
              "internalType": "uint256",
              "name": "totalContributed",
              "type": "uint256"
            },
            {
              "internalType": "string",
              "name": "socialLink",
              "type": "string"
            }
          ],
          "internalType": "struct Pool.PoolInfo",
          "name": "",
          "type": "tuple"
        }
      ],
      "stateMutability": "view",
      "type": "function"
    },
    {
      "inputs": [],
      "name": "goal",
      "outputs": [
        {
          "internalType": "uint256",
          "name": "",
          "type": "uint256"
        }
      ],
      "stateMutability": "view",
      "type": "function"
    },
    {
      "inputs": [],
      "name": "isFinished",
      "outputs": [
        {
          "internalType": "bool",
          "name": "",
          "type": "bool"
        }
      ],
      "stateMutability": "view",
      "type": "function"
    },
    {
      "inputs": [],
      "name": "owner",
      "outputs": [
        {
          "internalType": "address",
          "name": "",
          "type": "address"
        }
      ],
      "stateMutability": "view",
      "type": "function"
    },
    {
      "inputs": [],
      "name": "refund",
      "outputs": [],
      "stateMutability": "nonpayable",
      "type": "function"
    },
    {
      "inputs": [],
      "name": "totalContributed",
      "outputs": [
        {
          "internalType": "uint256",
          "name": "",
          "type": "uint256"
        }
      ],
      "stateMutability": "view",
      "type": "function"
    },
    {
      "inputs": [],
      "name": "withdraw",
      "outputs": [],
      "stateMutability": "nonpayable",
      "type": "function"
    },
    {
      "stateMutability": "payable",
      "type": "receive"
    }
  ],
  "bytecode": "0x60806040526000600660006101000a81548160ff02191690831515021790555034801561002b57600080fd5b506040516118d43803806118d4833981810160405281019061004d9190610317565b846000806101000a81548173ffffffffffffffffffffffffffffffffffffffff021916908373ffffffffffffffffffffffffffffffffffffffff16021790555083600181905550610e10836100a291906103dd565b426100ad919061041f565b60028190555081600590816100c2919061066a565b5080600460006101000a81548173ffffffffffffffffffffffffffffffffffffffff021916908373ffffffffffffffffffffffffffffffffffffffff160217905550505050505061073c565b6000604051905090565b600080fd5b600080fd5b600073ffffffffffffffffffffffffffffffffffffffff82169050919050565b600061014d82610122565b9050919050565b61015d81610142565b811461016857600080fd5b50565b60008151905061017a81610154565b92915050565b6000819050919050565b61019381610180565b811461019e57600080fd5b50565b6000815190506101b08161018a565b92915050565b600080fd5b600080fd5b6000601f19601f8301169050919050565b7f4e487b7100000000000000000000000000000000000000000000000000000000600052604160045260246000fd5b610209826101c0565b810181811067ffffffffffffffff82111715610228576102276101d1565b5b80604052505050565b600061023b61010e565b90506102478282610200565b919050565b600067ffffffffffffffff821115610267576102666101d1565b5b610270826101c0565b9050602081019050919050565b60005b8381101561029b578082015181840152602081019050610280565b60008484015250505050565b60006102ba6102b58461024c565b610231565b9050828152602081018484840111156102d6576102d56101bb565b5b6102e184828561027d565b509392505050565b600082601f8301126102fe576102fd6101b6565b5b815161030e8482602086016102a7565b91505092915050565b600080600080600060a0868803121561033357610332610118565b5b60006103418882890161016b565b9550506020610352888289016101a1565b9450506040610363888289016101a1565b935050606086015167ffffffffffffffff8111156103845761038361011d565b5b610390888289016102e9565b92505060806103a18882890161016b565b9150509295509295909350565b7f4e487b7100000000000000000000000000000000000000000000000000000000600052601160045260246000fd5b60006103e882610180565b91506103f383610180565b925082820261040181610180565b91508282048414831517610418576104176103ae565b5b5092915050565b600061042a82610180565b915061043583610180565b925082820190508082111561044d5761044c6103ae565b5b92915050565b600081519050919050565b7f4e487b7100000000000000000000000000000000000000000000000000000000600052602260045260246000fd5b600060028204905060018216806104a557607f821691505b6020821081036104b8576104b761045e565b5b50919050565b60008190508160005260206000209050919050565b60006020601f8301049050919050565b600082821b905092915050565b6000600883026105207fffffffffffffffffffffffffffffffffffffffffffffffffffffffffffffffff826104e3565b61052a86836104e3565b95508019841693508086168417925050509392505050565b6000819050919050565b600061056761056261055d84610180565b610542565b610180565b9050919050565b6000819050919050565b6105818361054c565b61059561058d8261056e565b8484546104f0565b825550505050565b600090565b6105aa61059d565b6105b5818484610578565b505050565b5b818110156105d9576105ce6000826105a2565b6001810190506105bb565b5050565b601f82111561061e576105ef816104be565b6105f8846104d3565b81016020851015610607578190505b61061b610613856104d3565b8301826105ba565b50505b505050565b600082821c905092915050565b600061064160001984600802610623565b1980831691505092915050565b600061065a8383610630565b9150826002028217905092915050565b61067382610453565b67ffffffffffffffff81111561068c5761068b6101d1565b5b610696825461048d565b6106a18282856105dd565b600060209050601f8311600181146106d457600084156106c2578287015190505b6106cc858261064e565b865550610734565b601f1984166106e2866104be565b60005b8281101561070a578489015182556001820191506020850194506020810190506106e5565b868310156107275784890151610723601f891682610630565b8355505b6001600288020188555050505b505050505050565b6111898061074b6000396000f3fe6080604052600436106100c65760003560e01c8063590e1ae31161007f5780638da5cb5b116100595780638da5cb5b146102ab578063d7bb99ba146102d6578063f18d20be146102e0578063f851a440146102f75761013b565b8063590e1ae31461023e57806360246c88146102555780637b352962146102805761013b565b8063023f4147146101405780630fc9fc291461016b57806329dcb0cf146101945780633ccfd60b146101bf57806340193883146101d657806342e94c90146102015761013b565b3661013b5734600360008282546100dd9190610aee565b9250508190555034600760003373ffffffffffffffffffffffffffffffffffffffff1673ffffffffffffffffffffffffffffffffffffffff16815260200190815260200160002060008282546101339190610aee565b925050819055005b600080fd5b34801561014c57600080fd5b50610155610322565b6040516101629190610b31565b60405180910390f35b34801561017757600080fd5b50610192600480360381019061018d9190610baf565b610328565b005b3480156101a057600080fd5b506101a9610402565b6040516101b69190610b31565b60405180910390f35b3480156101cb57600080fd5b506101d4610408565b005b3480156101e257600080fd5b506101eb610567565b6040516101f89190610b31565b60405180910390f35b34801561020d57600080fd5b5061022860048036038101906102239190610baf565b61056d565b6040516102359190610b31565b60405180910390f35b34801561024a57600080fd5b50610253610585565b005b34801561026157600080fd5b5061026a610726565b6040516102779190610d00565b60405180910390f35b34801561028c57600080fd5b50610295610820565b6040516102a29190610d3d565b60405180910390f35b3480156102b757600080fd5b506102c0610833565b6040516102cd9190610d67565b60405180910390f35b6102de610857565b005b3480156102ec57600080fd5b506102f561094f565b005b34801561030357600080fd5b5061030c610a4a565b6040516103199190610d67565b60405180910390f35b60035481565b600460009054906101000a900473ffffffffffffffffffffffffffffffffffffffff1673ffffffffffffffffffffffffffffffffffffffff163373ffffffffffffffffffffffffffffffffffffffff16146103b8576040517f08c379a00000000000000000000000000000000000000000000000000000000081526004016103af90610ddf565b60405180910390fd5b8073ffffffffffffffffffffffffffffffffffffffff166108fc479081150290604051600060405180830381858888f193505050501580156103fe573d6000803e3d6000fd5b5050565b60025481565b60008054906101000a900473ffffffffffffffffffffffffffffffffffffffff1673ffffffffffffffffffffffffffffffffffffffff163373ffffffffffffffffffffffffffffffffffffffff1614610496576040517f08c379a000000000000000000000000000000000000000000000000000000000815260040161048d90610e4b565b60405180910390fd5b60015460035410156104dd576040517f08c379a00000000000000000000000000000000000000000000000000000000081526004016104d490610eb7565b60405180910390fd5b600047905060008054906101000a900473ffffffffffffffffffffffffffffffffffffffff1673ffffffffffffffffffffffffffffffffffffffff166108fc829081150290604051600060405180830381858888f19350505050158015610548573d6000803e3d6000fd5b506001600660006101000a81548160ff02191690831515021790555050565b60015481565b60076020528060005260406000206000915090505481565b6002544210156105ca576040517f08c379a00000000000000000000000000000000000000000000000000000000081526004016105c190610f23565b60405180910390fd5b60015460035410610610576040517f08c379a000000000000000000000000000000000000000000000000000000000815260040161060790610f8f565b60405180910390fd5b6000600760003373ffffffffffffffffffffffffffffffffffffffff1673ffffffffffffffffffffffffffffffffffffffff16815260200190815260200160002054905060008111610697576040517f08c379a000000000000000000000000000000000000000000000000000000000815260040161068e90610ffb565b60405180910390fd5b6000600760003373ffffffffffffffffffffffffffffffffffffffff1673ffffffffffffffffffffffffffffffffffffffff168152602001908152602001600020819055503373ffffffffffffffffffffffffffffffffffffffff166108fc829081150290604051600060405180830381858888f19350505050158015610722573d6000803e3d6000fd5b5050565b61072e610a70565b6040518060a0016040528060008054906101000a900473ffffffffffffffffffffffffffffffffffffffff1673ffffffffffffffffffffffffffffffffffffffff1681526020016001548152602001600254815260200160035481526020016005805461079a9061104a565b80601f01602080910402602001604051908101604052809291908181526020018280546107c69061104a565b80156108135780601f106107e857610100808354040283529160200191610813565b820191906000526020600020905b8154815290600101906020018083116107f657829003601f168201915b5050505050815250905090565b600660009054906101000a900460ff1681565b60008054906101000a900473ffffffffffffffffffffffffffffffffffffffff1681565b600254421061089b576040517f08c379a0000000000000000000000000000000000000000000000000000000008152600401610892906110c7565b60405180910390fd5b600034116108de576040517f08c379a00000000000000000000000000000000000000000000000000000000081526004016108d590611133565b60405180910390fd5b34600760003373ffffffffffffffffffffffffffffffffffffffff1673ffffffffffffffffffffffffffffffffffffffff168152602001908152602001600020600082825461092d9190610aee565b9250508190555034600360008282546109469190610aee565b92505081905550565b600460009054906101000a900473ffffffffffffffffffffffffffffffffffffffff1673ffffffffffffffffffffffffffffffffffffffff163373ffffffffffffffffffffffffffffffffffffffff16146109df576040517f08c379a00000000000000000000000000000000000000000000000000000000081526004016109d690610ddf565b60405180910390fd5b600460009054906101000a900473ffffffffffffffffffffffffffffffffffffffff1673ffffffffffffffffffffffffffffffffffffffff166108fc479081150290604051600060405180830381858888f19350505050158015610a47573d6000803e3d6000fd5b50565b600460009054906101000a900473ffffffffffffffffffffffffffffffffffffffff1681565b6040518060a00160405280600073ffffffffffffffffffffffffffffffffffffffff168152602001600081526020016000815260200160008152602001606081525090565b6000819050919050565b7f4e487b7100000000000000000000000000000000000000000000000000000000600052601160045260246000fd5b6000610af982610ab5565b9150610b0483610ab5565b9250828201905080821115610b1c57610b1b610abf565b5b92915050565b610b2b81610ab5565b82525050565b6000602082019050610b466000830184610b22565b92915050565b600080fd5b600073ffffffffffffffffffffffffffffffffffffffff82169050919050565b6000610b7c82610b51565b9050919050565b610b8c81610b71565b8114610b9757600080fd5b50565b600081359050610ba981610b83565b92915050565b600060208284031215610bc557610bc4610b4c565b5b6000610bd384828501610b9a565b91505092915050565b610be581610b71565b82525050565b610bf481610ab5565b82525050565b600081519050919050565b600082825260208201905092915050565b60005b83811015610c34578082015181840152602081019050610c19565b60008484015250505050565b6000601f19601f8301169050919050565b6000610c5c82610bfa565b610c668185610c05565b9350610c76818560208601610c16565b610c7f81610c40565b840191505092915050565b600060a083016000830151610ca26000860182610bdc565b506020830151610cb56020860182610beb565b506040830151610cc86040860182610beb565b506060830151610cdb6060860182610beb565b5060808301518482036080860152610cf38282610c51565b9150508091505092915050565b60006020820190508181036000830152610d1a8184610c8a565b905092915050565b60008115159050919050565b610d3781610d22565b82525050565b6000602082019050610d526000830184610d2e565b92915050565b610d6181610b71565b82525050565b6000602082019050610d7c6000830184610d58565b92915050565b600082825260208201905092915050565b7f4e6f742061646d696e0000000000000000000000000000000000000000000000600082015250565b6000610dc9600983610d82565b9150610dd482610d93565b602082019050919050565b60006020820190508181036000830152610df881610dbc565b9050919050565b7f4e6f74206f776e65720000000000000000000000000000000000000000000000600082015250565b6000610e35600983610d82565b9150610e4082610dff565b602082019050919050565b60006020820190508181036000830152610e6481610e28565b9050919050565b7f476f616c206e6f74206d65740000000000000000000000000000000000000000600082015250565b6000610ea1600c83610d82565b9150610eac82610e6b565b602082019050919050565b60006020820190508181036000830152610ed081610e94565b9050919050565b7f446561646c696e65206e6f742072656163686564000000000000000000000000600082015250565b6000610f0d601483610d82565b9150610f1882610ed7565b602082019050919050565b60006020820190508181036000830152610f3c81610f00565b9050919050565b7f476f616c20776173206d65740000000000000000000000000000000000000000600082015250565b6000610f79600c83610d82565b9150610f8482610f43565b602082019050919050565b60006020820190508181036000830152610fa881610f6c565b9050919050565b7f4e6f20636f6e747269627574696f6e7300000000000000000000000000000000600082015250565b6000610fe5601083610d82565b9150610ff082610faf565b602082019050919050565b6000602082019050818103600083015261101481610fd8565b9050919050565b7f4e487b7100000000000000000000000000000000000000000000000000000000600052602260045260246000fd5b6000600282049050600182168061106257607f821691505b6020821081036110755761107461101b565b5b50919050565b7f446561646c696e65207061737365640000000000000000000000000000000000600082015250565b60006110b1600f83610d82565b91506110bc8261107b565b602082019050919050565b600060208201905081810360008301526110e0816110a4565b9050919050565b7f436f6e747269627574696f6e206d757374206265203e20300000000000000000600082015250565b600061111d601883610d82565b9150611128826110e7565b602082019050919050565b6000602082019050818103600083015261114c81611110565b905091905056fea2646970667358221220afcd27c10017ff32bc2cef9cf54fed10894355aefa84e6fc2972e6ae47c7d76e64736f6c634300081c0033",
  "linkReferences": {},
  "deployedLinkReferences": {}
}